:020000040800F2
:10500000984A0020995100086DBA00089D9F000839
:10501000A5510008A7510008A95100080000000090
:105020000000000000000000000000000151000826
:10503000AD5100080000000045510008D9CB000820
:10504000B3510008B3510008B3510008B351000830
:10505000B3510008B3510008B3510008B351000820
:10506000B3510008B3510008B3510008B351000810
:10507000B3510008B3510008D56B0008E16B00087C
:10508000B3510008B3510008B3510008B3510008F0
:10509000B3510008B3510008B3510008B3510008E0
:1050A000B351000889CC0008B3510008B35100087F
:1050B000C5CD0008D1CD00082DCE0008B3510008A1
:1050C000B351000801A00008B3510008B351000813
:1050D000B3510008B351000815DE0008B3510008B1
:1050E000076E0008B3510008B3510008DFF80CD078
:1050F00000F020FE00480047F5F40008984A002020
:10510000224B19680868B0E8F00F80F30988BFF3F4
:105110006F8F4FF0000080F311884EF00D0E704736
:105120000000000006480068006880F3088862B646
:1051300061B6BFF34F8FBFF36F8F00DF00BF00BFBB
:1051400008ED00E0EFF30980BFF36F8F0F4B1A6893
:1051500020E9F00F106008B54FF0500080F311887F
:10516000BFF34F8FBFF36F8F0DF056FF4FF000006E
:1051700080F31188BDE8084019680868B0E8F00FAE
:1051800080F30988BFF36F8F704700BF8400002051
:10519000EFF3058070470000064880470648004747
:1051A000FEE7FEE7FEE7FEE7FEE7FEE7FEE7FEE7D7
:1051B000FEE7FEE705CC0008ED5000082DE9F05FA2
:1051C0000546002092469B46884606468146402476
:1051D0001BE0284641464746224600F082FC5346E3
:1051E0005A46C01A914110D311461846224600F083
:1051F00069FC2D1A67EB01084F4622460120002169
:1052000000F060FC17EB00094E41201EA4F10104E0
:10521000DFDC484631462A464346BDE8F09F40EA77
:1052200001039B0703D009E008C9121F08C0042A24
:10523000FAD203E011F8013B00F8013B521EF9D20B
:105240007047D2B201E000F8012B491EFBD2704733
:105250000022F6E710B513460A4604461946FFF742
:10526000F0FF204610BD30B505462A460B4612F821
:10527000010B13F8014B08B1A042F8D01CB1002873
:1052800002D06D1CF1E7284630BD421C10F8011B0E
:105290000029FBD1801A7047034611F8012B00F852
:1052A000012B002AF9D11846704700000FB400B551
:1052B0008DB010A909900B9000914FF0FF300A902B
:1052C00000200C9005480690054807906A4609A8FA
:1052D0000F9900F03DFC0DB05DF814FB6D5B00080C
:1052E0008B5B00082DE9FF5F1D464FF0FF3BD5E9C2
:1052F000014691465F464FF00008A9697F1C01985E
:105300008847296A824688470028F6D1BAF1FF3FCC
:105310000CD024F4C064002E19DD600614D5BAF157
:105320002B0F09D0BAF12D0F0ED103E0584604B06F
:10533000BDE8F09F44F48064A9697F1C0198884708
:10534000761E8246002E02DDBAF1300F03D0B9F18D
:10535000000F26D032E0A969761E44F400747F1C49
:10536000019888478246002E05DDBAF1780F06D0F5
:10537000BAF1580F03D0B9F1000F10D01EE0B9F107
:10538000000F02D0B9F1100F18D1A969761E24F4CC
:1053900000747F1C019888478246102002E0082094
:1053A00000E00A20814609E008FB0908A969761E89
:1053B00044F400747F1C019888478246002E05DD66
:1053C0004946504600F0AFFB0028EDDAE969019844
:1053D0008847A00502D46FF00100A8E7E00725D1B7
:1053E000600613D5600502D5C8F1000000E0404614
:1053F00029680A1D2A600968220501D5087015E090
:10540000220701D5088011E008600FE02868011D1F
:1054100029600068210502D580F8008006E0210798
:1054200002D5A0F8008001E0C0F8008038467EE791
:105430002DE9FF5FD2E901A74FF000089169994675
:105440001446DDF838B0464601988847054659EAC3
:105450000B0005D009E0A169761C01988847054634
:10546000216A284688470028F5D1681C03D05FEAE6
:10547000CA7005D015E04FF0FF3004B0BDE8F09FD2
:105480002068011D2160D0F800800AE05FEACA7040
:1054900001D108F8015BA169761C7F1E019888473D
:1054A0000546002F1ADD681C18D0B9F1000F0DD089
:1054B000E81705EBD060421120F01F0059F82210C8
:1054C0002A1A012090400142E0D107E0BBF1000F11
:1054D000DCD1216A284688470028D7D0E1690198A5
:1054E0008847BBF1000F07D1002E05DD5FEACA70C7
:1054F00002D1002188F80010A068B84203DDBBF19A
:10550000000F03D017B16FF00100B6E73046B4E7E3
:10551000F0B480EA0102D40F4200B2EB410F02D294
:105520000246084611464A0042D0C30DDDB2C1F31F
:10553000C752AD1A202D35DAC1F3160141F400022D
:1055400004B15242C5F1200602FA06F12A41104484
:10555000B3EBD05F23D0C4B1012DA0EBC35009DC65
:10556000F0BC4FF0004202EAC352DBB200F500008B
:1055700000F025BB400000F1807000EBC350A0F1AB
:10558000807040EAD170490009E0490841EAC071E1
:10559000A0EBC35000F50000400800EBC350F0BC86
:1055A00000F004BB6142012202EB4101001BF6E75F
:1055B000F0BC704781F00041AAE780F00040A7E707
:1055C00030B480EA010202F0004530F0004221F0E0
:1055D000004013D090B1C30DD40DC2F31601C0F337
:1055E0001600E41A41F4000140F400027D349142B7
:1055F00001D3641C00E04900002C02DA30BC00201A
:1056000070474FF400000023914201D3891A0343ED
:1056100040084FEA4101F7D151B1914202D14FF018
:10562000004105E002D24FF0010101E06FF00101FD
:1056300003EBC450284430BC00F0B8BA2DE9FE4F4B
:10564000804681EA0300C00F0C46009021F0004123
:1056500023F00045B8EB0200A94105D2404621469F
:1056600090461C460B46024623F00040104347D0AC
:10567000270DC7F30A00C3F30A510290401A0190A4
:1056800040286BDAC3F3130040F4801B0098924665
:1056900020B10023D2EB030A63EB0B0B01985946B0
:1056A000C0F14002504600F00DFA06460D46504645
:1056B0005946019A00F025FA10EB080061410024D8
:1056C00087EA115284EAE7731A4340D0009A62B322
:1056D000019A012A4FEA075215DC001B61EB020117
:1056E0004FF0004202EA0752CDE90042001C41F5AA
:1056F000801132462B4600F09FFA03B0BDE8F08FD0
:1057000040462146F9E7001B61EB0201001C41F510
:10571000801300185B412018A2F5001747EB030126
:1057200040EAD570B6196D4111E06D084FEA3606B2
:1057300045EAC0754FEA0752001B61EB0201001CED
:1057400041F5801149084FEA3000001951413246B5
:105750002B4603B0BDE8F04F00F05FBA009801227D
:1057600040000023D0EB020263EBE0730098214677
:105770004FEAE074B8EB000061EB0401E9E783F065
:1057800000435BE781F0004158E72DE9FE4F81EAD5
:10579000030404F0004421F0004100944FF0000B9A
:1057A00023F0004350EA01045ED052EA03045BD0C8
:1057B000C3F30A54C1F30A552C44A4F2F334019400
:1057C000A0FB0254C1F3130141F48011C3F313038E
:1057D00043F4801301FB024400FB034E840A970A42
:1057E00044EA815447EA8357A4FB076802958D0A6F
:1057F00005FB07854FEA932C04FB0C542705029DFB
:105800004FEA065847EA1637B5EB08056EEB070C6A
:10581000870E920E47EA811742EA8312A7FB020124
:10582000B6EB0B0164EB00042B0D43EA0C335E185E
:1058300044EB1C50DA465146E7FB0201C5F3130462
:105840004FEA0B3343EA14534FEA0432019C43EA14
:105850000603A4F10C040294009CCDE900B400F00E
:10586000EBF903B0BDE8F08F00200146F9E72DE920
:10587000F04D81EA030404F0004B21F0004514468A
:105880004FF0000A23F0004150EA050220D054EA0C
:1058900001021DD0C5F30A570246C5F31303C1F335
:1058A0001300C1F30A5640F4801543F48013A7EBAC
:1058B0000608101BD64608F2FD3873EB050002D32C
:1058C00008F1010801E092185B41B8F1000F03DA1A
:1058D00000200146BDE8F08D00204FF480110646FF
:1058E00084460EE0171B73EB050705D3121B63EB11
:1058F000050306434CEA010C49084FEA30009218B0
:105900005B4150EA0107EDD152EA030012D082EA6E
:10591000040083EA0501084305D0101BAB4106D201
:105920000122002306E000224FF0004302E06FF066
:10593000010253101AEB06004CEB085110EB0A0061
:1059400041EB0B01BDE8F04D00F067B970B521F0F7
:10595000004303430CD0C1F30A550024D5EB0405E2
:1059600064EB0403D617AD1AB34102DB00200146F5
:1059700070BD201841EB025170BDC10F80EAE0708C
:105980000844CA079623002100F019B90EB5C10FCB
:1059900080EAE0700844CA07002140F233438DE8F2
:1059A0000E000A460B4600F047F903B000BD0EB5E5
:1059B00040F2334102910021CDE900110A460B4625
:1059C00000F03AF903B000BD20F00040C10DC0F373
:1059D000160040F400007F2901DA00207047962964
:1059E00003DCC1F19601C840704796398840704782
:1059F00070B5C1F30A5201F000450024C1F3130150
:105A000040F2FF3341F480119A4201DA002070BD68
:105A100040F233439A42A2F2334203DC524200F096
:105A200060F800E090402C43F1D0404270BDC1F3DB
:105A30000A5210B5C1F3130140F2FF3341F4801153
:105A40009A4201DA002010BD40F233439A42A2F29A
:105A5000334203DC524200F044F810BD904010BDC8
:105A600001F0004330B421F0004150EA010206D0B9
:105A70000A0DA2F56072C1F31301002A02DC30BCEA
:105A800000207047440F44EAC104C100E01830BC54
:105A900000EBC25000F08AB830B50B46014600203A
:105AA0002022012409E021FA02F59D4205D303FAE0
:105AB00002F5491B04FA02F52844151EA2F1010261
:105AC000F1DC30BD202A04DB203A00FA02F100208C
:105AD00070479140C2F1200320FA03F3194390402C
:105AE0007047202A04DB203A21FA02F00021704797
:105AF00021FA02F3D040C2F1200291400843194636
:105B00007047202A06DBCB17203A41FA02F043EA1D
:105B1000E07306E041FA02F3D040C2F12002914066
:105B20000843194670473A2800D2303820F0200246
:105B3000412A01D3A2F13700884201D34FF0FF3050
:105B400070470000026811441378016018467047DE
:105B5000D16004495161044911620021116111466B
:105B600000F000B9455B0008595D0008426842B189
:105B7000016811F8013B23B1521EC0E9001218461A
:105B800070470121C160881E704742685AB1C368DE
:105B9000016843B983688B4205D0491E521CC0E995
:105BA0000012002070474FF0FF3070470029A8BF57
:105BB0007047401C490008BF20F00100704710B436
:105BC000B0FA80FC00FA0CF050EA010404BF10BCEB
:105BD000704749B1CCF1200421FA04F411FA0CF118
:105BE00018BF012121430843A3EB0C01CB1D4FEA51
:105BF00000614FEA102042BF002010BC704700EB4C
:105C0000C35010440029A4BF10BC7047401C490079
:105C100008BF20F0010010BC704710B5141E73F1CE
:105C2000000408DA401C41F1000192185B411A435C
:105C300001D120F0010010BD2DE9F04D92469B46A8
:105C400011B1B1FA81F202E0B0FA80F2203290464E
:105C5000FFF738FF04460F4640EA0A0041EA0B010D
:105C600053465A46084313D0114653EA010019D04F
:105C7000C8F140025046FFF734FF05460E46504635
:105C800059464246FFF71EFF084305D0012004E0B5
:105C900020463946BDE8F08D0020054346EAE0760F
:105CA0002C4337430A986305E40AA0EB080000225E
:105CB000FD0A44EA47540A3002D500200146E9E7CC
:105CC000010510196941DDE9084500196941BDE880
:105CD000F04DA2E7C1F30A52C1F3130140F2FF33C2
:105CE00041F480119A4202DA00200146704740F2E6
:105CF00033439A42A2F2334202DC5242FFF7F1BE32
:105D0000FFF7E0BE30B5041E71F1000404DB4FF074
:105D10000044404264EB0101141E73F1000405DBF2
:105D20001C464FF00043524263EB0403994208BF04
:105D3000904230BD064C074D06E0E06840F001039C
:105D400094E8070098471034AC42F6D3FFF7D2F935
:105D5000A86D0108C86D0108C0B24FF4F05100F001
:105D600097B900002DE9F34F8BB04FF0000801F117
:105D70000C000C464FF0010B46460DF1080A01904D
:105D80006269012101989047051E2DD0252D2CD048
:105D9000216A8847C0B16269012101989047216A50
:105DA00088470028F7D1411E62690198904700E0BA
:105DB000761CA1690B988847216A88470028F7D18B
:105DC000E1690B988847DBE7A1690B98884707468C
:105DD000A84201D1761CD3E7E1690B9888477F1C64
:105DE00002D1B8F1000F6FD046E1002762693D464D
:105DF0003946019890472A2804D162690121019807
:105E000090470125DFF8849262690121019890474B
:105E1000A0F130010A290AD24F45E5DC07EB8701E2
:105E200000EB4107303FDFD445F01005ECE7E90611
:105E300001D46FF000476C280AD04C2814D0682891
:105E400015D06A280DD074281CD07A281AD01DE0ED
:105E500062690121019890476C2802D045F0040541
:105E600014E045F002050DE045F020050AE0626906
:105E7000012101989047682802D045F0080505E007
:105E800045F400656269012101989047C4E9015712
:105E900065283DD019DC58287AD00CDC452837D04D
:105EA00004DC252826D0412831D131E046282FD0E6
:105EB00047282CD12CE05B2877D0612828D0632894
:105EC0007CD0642823D15AE0D0E06F2848D008DC89
:105ED00066281DD067281BD0692821D06E2816D1CE
:105EE00027E0702845D0732868D0752847D07828D7
:105EF0000DD14DE0A1690B988847054625283FF450
:105F000069AFE1690B9888476D1C3FF46AAFB3E055
:105F100023466A466FF001000B99AFF300809EE0C4
:105F200045F040006060A80723464FF0000236D4D9
:105F30003EE0E8077FF447AF2068011D216000685C
:105F4000290501D506701BE7290701D5068017E74B
:105F5000A90703D5F117C0E9006111E706600FE753
:105F600045F040006060A80723464FF0080216D4B1
:105F70001EE040F60E0125EA0100606016E045F0E3
:105F800040006060A80723464FF00A0207D40FE0E4
:105F900045F040006060A80708D5234610226FF046
:105FA00001000B99AFF3008059E007E0234610226F
:105FB0006FF001000B99FFF795F950E04FF00009E1
:105FC0004F464B46632802D05B2806D040E0E806E7
:105FD00001D40120A06001273AE062690121019803
:105FE00090475E2805D14FF0010962694946019842
:105FF0009047216939B900210A46534643F82120C8
:10600000491C0829FADBB0B3216969B9C11700EB53
:10601000D16253110AEB830122F01F02821A012080
:106020000B68904003430B6062690121019890471F
:106030005D28E8D1B9F1000F09D00020514651F890
:106040002020D24341F82020401C0828F7DB02AB77
:10605000224600976FF001000B99FFF7E9F900283D
:106060000CDA401C08D1BBF1000F05D04FF0FF3017
:106070000DB0BDE8F08FFFE74046F9E7E90701D131
:1060800008F1010806444FF0000B79E6CCCCCC0CAB
:106090007F2801D9002208E0064A02EB5002C0071F
:1060A000127800D1120902F00F020120904008403E
:1060B000704700009369010870B58C1810F8015BF7
:1060C00015F0070301D110F8013B2A1106D110F891
:1060D000012B03E010F8016B01F8016B5B1EF9D195
:1060E0002B0705D40023521E0DD401F8013BFAE71B
:1060F00010F8013BCB1A921C03E013F8015B01F886
:10610000015B521EF9D5A142D8D3002070BD00001A
:106110000648054901600021416081604FF460211B
:10612000C16101F0C9B80000002401403C1C0020FE
:1061300070B5044600688168C943C9071CD18168ED
:1061400021F00101816001F011FD05460FE000BF63
:1061500001F00CFD401B022809D9A06A40F0100094
:10616000A062E06A40F00100E062012070BD20689A
:106170008068C043C007EBD0002070BDF8B5002692
:106180000446009600688168C943C90728D0816821
:1061900041F001018160134813490068B0FBF1F040
:1061A00000E0401E00900028FBD101F0DFFC054616
:1061B00011E000BF01F0DAFC401B02280BD9A06AF5
:1061C00040F01000A062E06A40F00100E06284F854
:1061D00024600120F8BD20688068C043C007E9D171
:1061E0000020F8BD5C00002040420F0010B504F014
:1061F000E7FB322000F00FFD04F09EFC702004F05D
:1062000073FCE12004F070FC082004F06DFC002019
:1062100004F06AFC04F0A8FCBDE81040322000F055
:10622000FABC00002DE9F0478946824604F084FC60
:10623000702004F059FC04F0AFFCAC2004F054FCD6
:1062400004F0AAFC332004F04FFC04F0A5FC00206D
:1062500004F04AFC04F0A0FC04F086FC502000F09E
:10626000DAFC04F069FC712004F03EFC04F094FCBC
:10627000012004F0DDFB400654D4012004F0D8FBDB
:106280008046012004F0D4FB0446012004F0D0FB3A
:106290000746012004F0CCFB0646002004F0C8FBB2
:1062A000054604F061FC4FEA083000EB041000EBF7
:1062B00017113807000B00EB062044190846FFF7BA
:1062C00076FB0022194BFFF760FA6FF009052A46AA
:1062D000FFF73CFB2A46FFF739FB154E00223346F9
:1062E000FFF7ACF9C9E900012046FFF760FB002287
:1062F000104BFFF74AFA2A46FFF728FB2A46FFF71A
:1063000025FB00223346FFF799F900220A4BFFF7DD
:10631000AEFA0022094BFFF732FACAE90001002069
:10632000BDE8F08704F020FC0120F9E700005940A7
:106330000000E03F00409F40000024400000494032
:10634000F0B55D4A5D4CCBB0516904F12003CE0736
:1063500004F118004FF4807514D04E0112D421F0CE
:10636000010151611946FFF75DFFD4E9062354A0EE
:1063700009F00EFE29460AA8FEF76AFFD4E90601D5
:1063800054A215E08E071ED54E011CD421F0020147
:1063900051611946FFF746FFD4E9082350A009F0E0
:1063A000F7FD29460AA8FEF753FFD4E9080150A2D9
:1063B000CDE9000151A10AA808F0AAFB0AA808F03B
:1063C00075F94BB0F0BD480721D548011FD421F025
:1063D0000400506106F0AAFAC8200CF095FC05F004
:1063E00059FEFFF7E4FA4FF033324A4BFFF73FFA1A
:1063F000C4E90A0102460B4647A009F0C9FD294637
:106400000AA8FEF725FFD4E90A0148A2D0E7080749
:10641000D7D54801D5D421F008005061042000F000
:1064200077FEFFF7C4FA444F4FF0663632463B46DC
:10643000FFF7ABF9C4E90C01082000F069FEFFF793
:10644000B6FA32463B46FFF7A0F9C4E90E0109202F
:1064500000F05EFEFFF7ABFA32463B46FFF795F9D8
:10646000C4E91001D4E90C2334A009F091FDD4E96A
:106470000E2337A009F08CFDD4E9102339A009F0D0
:1064800087FD29460AA8FEF7E3FED4E91001CDE90D
:10649000080139A00690D4E90E01CDE9040138A025
:1064A0000290D4E90C01CDE9000137A238A10AA875
:1064B00008F02EFB82E700008C010020A8010020DC
:1064C000CEC2B6C8A3BA252E326620A1E3430D0A78
:1064D0000000000074656D7065726174757265000E
:1064E000CAAAB6C8A3BA252E32662025250D0A00F1
:1064F00068756D6964697479000000007B227061C1
:1065000072616D73223A7B222573223A252E326600
:106510007D7D00003333F33FB9E2D5D5B6C8A3BAC9
:10652000252E3266206C780D0A0000006C696768C1
:10653000746C75780000000066664A3F4144435F12
:106540004348343A252E326620560D0A00000000DA
:106550004144435F4348383A252E326620560D0A9F
:10656000000000004144435F4348393A252E32661B
:1065700020560D0A000000004144435F43483300A9
:106580004144435F434832004144435F4348310044
:106590007B22706172616D73223A7B222573223AED
:1065A000252E32662C222573223A252E32662C2285
:1065B0002573223A252E32667D7D00002DE9F047B5
:1065C0000746DDE90950089E984691460C4638B1C9
:1065D0003346424649463846A446BDE8F047604740
:1065E000022138460AF086F8334642464946384684
:1065F000A04738460AF067F828460CF085FB33467A
:10660000424649463846A04738460AF05CF82846D4
:10661000BDE8F04700F0FFBA2DE9F04188B02C4901
:106620001820CDE90001002380222AA12C480DF07A
:106630000DF80A242B4FDFF8B080264604252B489E
:1066400009F018FD2046FFF7A1F900223B46FFF7AD
:106650000EF900224346FFF798F8FFF7C9F9024602
:1066600023A102A808F054FA234920480AF04AF866
:1066700002AB312264211D4809F06CFFCDE90065B1
:10668000A3B228221021194809F06FFECDE9006558
:10669000502328221021154809F0DAFE13480AF089
:1066A00012F8A41C502CCADD144910480AF02AF82C
:1066B00032210D20CDE9000111A3202210210B4829
:1066C00005F0D5F908B00948BDE8F04109F0FBBF75
:1066D00010000020436F6E576966695461736B0048
:1066E0000D67000800005440000059407802002067
:1066F0002564252500000000F54D01089657010886
:1067000053544D33325F58590000000010B507F064
:106710001DFD03490868BDE810400CF01BBB0000DC
:10672000100000202DE9F14F8AB000220221012043
:106730000CF00CFD8F4F18228F49386003A8FEF72C
:106740006EFD0A9809F0F4FF8C4C4FF007094FF0EA
:10675000400A03AE4FF4FA784FF0010B00250A9877
:1067600009F088FC0A9809F0E3FFCDE900A90022AE
:10677000802311460A9809F06BFE032280A311467C
:106780000A9809F0E7FE7FA3132203210A9809F073
:10679000E1FE7DA3222203210A9809F0DBFE7BA300
:1067A000302203210A9809F0D5FE79A30322322171
:1067B0000A9809F0CFFE7148E27876A1C01D08F072
:1067C000A7F96E4B0422DB1D14210A9809F0C2FEC2
:1067D0006A4822786FA10A3008F09AF9674B1422B0
:1067E0000A3311460A9809F0B5FE6448627869A137
:1067F0000D3008F08DF9614B23220D3314210A98D6
:1068000009F0A8FE5D48A27862A1103008F080F976
:106810005A4B3222103314210A9809F09BFE574834
:1068200022795CA1133008F073F9544B042213331E
:1068300055210A9809F08EFE6079002894F9060027
:1068400006EB800012D08DE80109C37882785249A6
:106850000A98FFF7B3FE0A9809F035FF002209A94C
:1068600038680CF01DFE012804D076E0CDE9000860
:106870000295EAE79DF82400012802D002281AD0E8
:106880006BE09DF82500012804D0022809D00328D8
:1068900007D062E0607908B165715EE084F805B008
:1068A0005BE065710A231A4600210A9804F038FC5F
:1068B0000BB0BDE8F08F9DF82500052802D0042814
:1068C00025D04AE0607940B194F90600052844D209
:1068D000DFE800F00C0F12151800A079401C40B240
:1068E000A071042839DD0420A07136E0E078401E54
:1068F00022E02078401E23E06078401E24E0A0784B
:10690000401E25E02571FF2005F052F925E0607951
:1069100040B194F9060005281FD2DFE800F00B0F04
:1069200013171B00A079401E40B2A071002814DA92
:10693000A57112E0E078401CE0700EE02078401C69
:1069400020700AE06078401C607006E0A078401C6F
:10695000A07002E02079401C207120790090E3783B
:10696000A2786178207805F0C3F90A9809F0ABFEA7
:10697000F5E6000038000020FC3B0108480100203B
:106980004C000000520000004700000042000000E0
:106990006E756D00256400000F6E00082DE9F14F43
:1069A00084B00022022101200CF0D0FB3C4D286075
:1069B000049809F0BDFE3B4F4FF00C094FF0070A59
:1069C0004FF0280B00244FF008084FF4006604989D
:1069D00009F050FBCDE900941A232022502104989D
:1069E00009F036FDCDE900BA0A226C23114604985D
:1069F00009F02EFD0D222CA31146049809F0AAFDE2
:106A00003146384601F0A8F8A8B1CDE900840C233E
:106A100022225221049809F0A8FC25A30D2254211A
:106A2000049809F097FD002202A928680CF038FDAF
:106A300001280AD02FE0CDE900841623222252211A
:106A4000049809F092FC1BA3E8E79DF808000128D0
:106A500002D0022811D01EE09DF80900012803D0C1
:106A6000022801D0032816D10A231A4600210498CF
:106A700004F056FB05B0BDE8F08F9DF8090005282D
:106A800002D0042802D006E0012200E000223146B4
:106A9000384601F066F8049809F015FE97E7000003
:106AA00038000020000801405374617475733A0087
:106AB0004F4646004F4E00002DE9F14F84B00022B2
:106AC000022101200CF042FB3C4D2860049809F0A3
:106AD0002FFE3B4F4FF00C094FF0070A4FF0280BE9
:106AE00000244FF008084FF48056049809F0C2FAC9
:106AF000CDE900941A2320225021049809F0A8FC23
:106B0000CDE900BA0A226C231146049809F0A0FCD2
:106B10000D222CA31146049809F01CFD314638467D
:106B200001F01AF8A8B1CDE900840C2322225221E9
:106B3000049809F01AFC25A30D225421049809F0A9
:106B400009FD002202A928680CF0AAFC01280AD03D
:106B50002FE0CDE90084162322225221049809F067
:106B600004FC1BA3E8E79DF80800012802D00228D6
:106B700011D01EE09DF80900012803D0022801D0A1
:106B8000032816D10A231A460021049804F0C8FAF3
:106B900005B0BDE8F08F9DF80900052802D0042853
:106BA00002D006E0012200E000223146384600F023
:106BB000D8FF049809F087FD97E70000380000200F
:106BC000000801405374617475733A004F464600E3
:106BD0004F4E00000148406B00F0ACBDD43F002098
:106BE0000148806B00F0A6BDD43F002030B590F87E
:106BF00040500124AC40C56B6C600468636043681E
:106C0000102B036803D099600068C26030BD9A60A1
:106C10000068C16030BD70B5054600244FF47A7637
:106C200003E0304600F004F8641CAC42F9DB70BDB0
:106C300030B50C4A00211368DC6A4FF47A72604365
:106C4000B0FBF2F55A6A586A9042FCD002D9A0EB28
:106C5000020202E0A4EB0202024411440246A942ED
:106C6000F1D330BDB81F002004F0C5BA10B57021B3
:106C70002748FEF7EDFA702225490020FFF7F4FFC0
:106C8000234C2078DD280FD022A009F081F9BFF332
:106C90004F8F2A4801682A4A01F4E06111430160DC
:106CA000BFF34F8F00BFFDE704F0B4F8254809F0AB
:106CB0006FF9611C24A009F06BF9154927A00D316B
:106CC00009F066F912492AA02E3109F061F910493C
:106CD0002CA04F3109F05CF92E492FA009F058F98A
:106CE0002C4931A0403109F053F92A4932A08031B2
:106CF00009F04EF9274800F1C001D0F8002132A078
:106D000009F046F9BDE81040344809F041B90000E7
:106D100008020020D6A4CAE9D0C5CFA2CEDED0A7F3
:106D200020C7EBD4DA426F6F744C6F61646572D622
:106D3000D0D6D8D0C2C9E8D6C30D0A000CED00E009
:106D40000400FA05206A010850726F647563744B81
:106D50006579A3BA25730D0A0000000044657669C1
:106D600063654E616D65A3BA25730D0A00000000CE
:106D7000446576696365536563726574A3BA257368
:106D80000D0A0000B9CCBCFEB0E6B1BEA3BA2573B3
:106D90000D0A0000E4160020BFCDBBA7B6CB4944C6
:106DA000A3BA25730D0A0000D3C320BBA720C3FBE1
:106DB000A3BA25730D0A0000C3DC20202020C2EBFB
:106DC000A3BA25730D0A0000B7FE20CEF120C6F746
:106DD000A3BA25733A25640D0A000000D46901089E
:106DE0002DE9F041174606460D46002407E0295DCF
:106DF000304604F030FA761C641CF6B2A4B2BC42F1
:106E0000F5D3BDE8F0814FF4004000F0A9BD7CB59A
:106E10001C461B7864780025CDE9004509F018FB75
:106E20007CBD00002DE9F04F0E46824687B000225F
:106E300002210A200CF08AF9DFF87C915F4C4FF0B8
:106E4000000BC9F8000084F802B084F800B04FF0DD
:106E5000FF37504609F00EF9504609F069FC5849D1
:106E6000504609F04FFC3D464FF0020894F90100EE
:106E700031792844491E884211DC716901EB4010C8
:106E800094F92410036808EB0510084482B202212B
:106E9000504609F05FFB6D1C6DB2062DE6DB94F8E1
:106EA0002600CDE9040A06F1100025460FC88DE83A
:106EB0000F0096E80F0004F0F7FC002206A9D9F8AD
:106EC00000000CF0EDFA01282DD19DF818000128E2
:106ED00002D002281CD026E09DF81900012804D019
:106EE00002280CD003280AD01DE095F900200820C4
:106EF000716900EB42100858A8B1804713E00A23DB
:106F00001A460021504604F00BF907B0BDE8F08F97
:106F10009DF81900052802D0042803D003E00120C1
:106F2000E87000E0EF7095F9030028B3A9780144F8
:106F30004BB2AB702978084440B22870594685F8A6
:106F400003B0002800DA2970327995F900C0521E8A
:106F50002846944500DD0270002B00DA817090F91C
:106F60000210032901DD03218170317990F902209B
:106F7000491E8A4200DDA9702978A878081A40B213
:106F8000687095F92510884205D0411A090185F8E5
:106F9000241085F8250095F9240048B1FEF7F6FC89
:106FA0000022084BFEF763FCFEF722FD85F8240063
:106FB000504609F088FB4CE738000020EC00002028
:106FC000854401080000F83F10B502F0E9FF05F024
:106FD0002BFD05F065FD05F07BFD05F0C3FDBDE86B
:106FE000104005F0E7BD0000F0B505468BB000226B
:106FF000022101200CF0AAF83E4E18223E493060D2
:1070000003A8FEF70CF93D49284609F005FB401C92
:107010008DF80C0095F87E008DF80D003849284653
:1070200009F0FAFA401C8DF8100095F87E008DF8F2
:1070300011003449284609F0EFFA401C8DF814007D
:1070400095F87E00304C8DF815000027002209A924
:1070500030680CF025FA012833D19DF8240001286E
:1070600002D0022816D02CE09DF82500012804D07B
:10707000022807D003280BD023E02078294605F00A
:10708000B3F91EE00A231A460021284604F048F806
:107090000BB0F0BD9DF82500052802D0042809D0CA
:1070A0000FE02078401C40B22070052809DD052043
:1070B000207006E02078401E40B22070002800DAE0
:1070C0002770284608F0D6FF284605F077FF94F988
:1070D000002003A84FF4FA7100EB82008DE88300D2
:1070E000C378827809492846FFF768FA284609F0EC
:1070F000EAFAABE738000020E43B0108E600002094
:10710000E0000020DD0000203C0100200F6E0008A0
:107110000EB56946009001200190042002900748B6
:1071200000F048F8054800F031FA6421034800F007
:1071300095F9024800F0BCF880B20EBD3C1C00205E
:1071400010B508280BD2DFE800F00A04060C0E1078
:10715000121409A100E00AA10B4807F0D9FC0A4863
:1071600010BD0AA1F8E70BA1F6E70CA1F4E70DA109
:10717000F2E70EA1F0E700004D6F6E2E0000000058
:10718000547565732E0000001C0000205765642EA6
:1071900000000000546875722E0000004672692ECF
:1071A000000000005361742E0000000053756E2E25
:1071B00000000000F8B50024009490F82420254633
:1071C000012A12D0012280F824204A681F23072AAE
:1071D0000DD20668776B521E02EB820293409F43EA
:1071E0000B6893401F43776319E00220F8BD0668DF
:1071F0000D2A0AD2376BD21F02EB820293409F43C3
:107200000B6893401F43376309E0F76A0D3A02EBBE
:10721000820293409F430B6893401F43F7620A68C2
:10722000072306680A2A0AD3F7680A3A02EB4202E1
:1072300093409F438B6893401F43F76008E0376992
:1072400002EB420293409F438B6893401F43376198
:107250000A68102A01D0112A20D1124B02689A42E2
:1072600017D193681B0219D4936843F40003936009
:107270000968102912D10C490C4A0968B1FBF2F1D6
:1072800001EB8101490000E0491E00910029FBD17A
:1072900004E0816A41F020018162012480F82450D9
:1072A0002046F8BD002401405C00002040420F0051
:1072B0000068C06C704700002DE9F0414FF00007F6
:1072C00004003D467ED0A06A002628B9E66284F814
:1072D0002460204600F07EF82046FEF729FFA16AD0
:1072E000C90600D420B1A06A40F01000A06269E095
:1072F000A16A21F4885141F00201A1626268E1694A
:10730000237B0A4347EA43010A43A1684FF480778D
:10731000B94209D0012907D05FF0000194F814C0E8
:10732000BCF1010F02D00AE03946F7E7F3B1A36AD6
:1073300043F02003A362E36A43F00103E36223689E
:10734000D3F804C02CF4694C4CEA010CC3F804C017
:1073500021688B68DFF870C003EA0C0313438B606D
:10736000A168B9420BD0012909D00CE0DFF85CC05C
:10737000A3690CEB43330B4343F40061DFE7218A3D
:107380000D05A5F580152168CB6A23F470032B4306
:10739000CB62216889680E4B1940914208D1E662A0
:1073A000A16A21F0020141F00101A162BDE8F08172
:1073B000A06A20F0020040F01000A062E06A40F0F5
:1073C0000100E0620120F1E7FDF7E1FF00E0FFFFCF
:1073D000FE0E1FFF30B589B000250095019502957E
:1073E00003950068194988422ED1194CA06940F0D4
:1073F0000400A061A06900F004000890A06940F0BA
:107400000800A061A06900F0080008900220049024
:107410008003069004A801F0A5F8A06940F400706C
:10742000A061A069032400F40070089010208DE88A
:1074300031006946074800F09FFA00946946064803
:10744000CDE9014500F098FA09B030BD00240140B3
:107450000010024000080140000C01402DE9F843F3
:1074600000260D460446009600F080FB804620680A
:107470008168C90508D5A06A40F02000A06284F8A0
:1074800024600120BDE8F8834168C90503D4C06ABF
:1074900010F4700F26D0022001F000F83849096876
:1074A000B1FBF0F72068036936490B424FEA6101EE
:1074B0004FEAA1121BD1C3684FEA611C13EA0C0FFB
:1074C00015D103690B4221D1C06810421ED114208E
:1074D0001FE0681C06D045B300F048FBA0EB080095
:1074E000A84222D8206800688007F2D52AE0036904
:1074F0000B4202D1C168114206D0026922490A42F8
:1075000006D1C068084203D1542002E0292000E0DF
:10751000FC204743009813E0681C0ED02DB100F00A
:1075200025FBA0EB0800A84207D9A06A40F00400A0
:10753000A06284F824600320A4E70098401C009017
:10754000B842E9D321686FF012000860A06A40F4E5
:107550000070A06220688068C0F3424007280CD108
:10756000207B50B9A06A20F48070A062A06AC00499
:1075700003D4A06A40F00100A062002082E700006E
:107580005C000020244992244992240070B50446EE
:1075900090F8240001280DD0012084F82400204612
:1075A000FEF7ECFD02004FF0000005D084F8240047
:1075B000104670BD022070BDA16A40F201239943BC
:1075C00041F48071A1621F4D23681F49AB4218D15D
:1075D0000E6816F4702F14D0A66A46F48016A662C0
:1075E0000E68760505D5A66A26F4005646F4805640
:1075F000A662A66AF6040AD5E66A26F00606E662E0
:1076000006E0A66A26F48016A6625E68E9E7E062F4
:1076100084F824006FF00200186020688368C3F3C8
:107620004243072B05D1A84208D1096811F4702FF5
:1076300004D0816841F480118160B9E7816841F428
:10764000A001F9E7002801400424014010B590F89A
:1076500021100022022905D00421816380F8202016
:10766000012010BD01680B6823F00E030B60016858
:107670000B6823F001030B6090F84030C46B0121CC
:1076800001FA03F3636080F8211080F8202010468F
:1076900010BD000010B590F821100024022903D07D
:1076A0000421816301243DE001680A6822F00E0292
:1076B0000A6001680A6822F001020A601A4A016839
:1076C000914201D1012121E0174A1432914201D1A6
:1076D00010211BE0144A2832914201D1891515E08E
:1076E000114A3C32914201D189140FE00E4A5032C6
:1076F000914202D14FF4803108E00B4A643291424A
:1077000002D14FF4801101E04FF08071064A083A2F
:107710005160012180F82110002180F82010416B78
:1077200001B18847204610BD0800024090F82100B2
:10773000704700002DE9F05FC16B0C6801680B68B1
:10774000D0F840C0042202FA0CF2494DDFF824A11F
:10775000494E4A4FDFF828B1DFF828E122422CD009
:107760005A072AD50A68920603D40A6822F004024E
:107770000A600168A94201D1042219E0514501D1F2
:10778000402215E0B14202D14FF4806210E0B942CC
:1077900002D14FF480420BE0594502D14FF48022D0
:1077A00006E0714502D14FF4800201E04FF08062A3
:1077B0002F4908394A60C16A3BE04FF0020808FAD5
:1077C0000CF818EA040F4FF000094FF0010235D011
:1077D0005FEA837832D50B689B0605D40B6823F0EB
:1077E0000A030B6080F821200168A94201D102221E
:1077F00019E0514501D1202215E0B14202D14FF4E8
:10780000007210E0B94202D14FF400520BE059452A
:1078100002D14FF4003206E0714502D14FF400125C
:1078200001E04FF00072124908394A6080F8209058
:10783000816A00291AD0BDE8F05F0847082505FADB
:107840000CF5254212D01B0710D50B6823F00E0350
:107850000B6090F84010C36B02FA01F1596082632B
:1078600080F8212080F82090016BE2E7BDE8F09FCE
:10787000080002401C000240300002404400024068
:10788000580002406C00024030B528B308C81349C4
:1078900014221944B1FBF2F18900C16310498163DC
:1078A000022141771A6843F6F0718A43D0E9001447
:1078B0002143D0E902452C43214304692143446913
:1078C000214384692143114319600021416301224E
:1078D00042770177084630BD012030BDF8FFFDBF7B
:1078E0000000024070B5044690F8200000250128F1
:1078F0000CD0012084F8200094F821600020012E93
:1079000006D084F820000225284670BD022070BDF4
:10791000022684F82160A0632068066826F001062C
:1079200006602046FFF762F9E06A002820680168D7
:1079300002D041F00E0106E021F004010160206850
:10794000016841F00A0101602068016841F001010D
:107950000160D9E7B0F5004F01D103F0DFB97047FE
:10796000044910B50A68024202D00860FFF7F2FF2E
:1079700010BD0000140401402DE9F84FDFF8B89164
:10798000002409F1040A0AF1040B23460F270BF126
:10799000040EC9E00125A5402A40AA427DD1674EC8
:1079A000D1F804C0ACEB0608B44532D014DCBCF10D
:1079B000030F3AD009DCBCF1000F2AD0BCF1010F53
:1079C0001CD0BCF1020F31D11DE0BCF1110F17D05A
:1079D000BCF1120F2AD119E0B8F5881F19D006DCC6
:1079E000B8F5803F15D0B8F5801F1FD111E0B8F56C
:1079F000001F0ED0B8F5041F18D10AE0CB6815E0BF
:107A0000CB681B1D12E0CB6808330FE0CB680C334A
:107A10000CE08B682BB1012B4FF0080303D04561BC
:107A200004E0042302E0056100E00023FF2A01D8FE
:107A3000064601E000F104064FEA840501D9A5F1EC
:107A40002005D6F8008007FA05FC28EA0C0803FA9E
:107A500005F548EA0508C6F800804D68ED0062D5D6
:107A6000374DAE6946F00106AE61AD6924F00306FC
:107A700005F001050095334D06EB050CDCF80850C8
:107A8000A607360F07FA06F825EA0805DFF8B880DA
:107A9000404503D14FF0000817E044E0DFF8AC8028
:107AA000404502D14FF001080FE0DFF8A4804045C7
:107AB00002D14FF0020808E0DFF89880404502D17B
:107AC0004FF0030801E04FF0040808FA06F848EA0E
:107AD0000508CCF808804D68D9F80060ED034D46E4
:107AE00001D5164300E096432E604D68DAF8006039
:107AF000AD03554601D5164300E096432E604D6810
:107B0000DBF80060ED025D4601D5164300E09643C8
:107B10002E604D68DEF80060AD02754601D5164353
:107B200000E096432E60641C0D682A46E5407FF411
:107B300031AFBDE8F88F00000004014000001110D3
:107B4000001002400000014000080140000C01400C
:107B500000100140001401408068084000D001205E
:107B600070470AB1016170470904FBE7014880686A
:107B70007047000050000020704770472DE9F04129
:107B8000026800245168C56A90F83E3090F83D6064
:107B9000102B1CD0402B1AD0036C002B7ED05369C5
:107BA0004FF02805DB439F0779D4CF43BF0576D438
:107BB000016C01B1946990F83D3000219D430B4662
:107BC0007FD0C91E516180F83C30BDE8F0819469D6
:107BD00053694FF42A07DB435FEAC37C4FF02A4620
:107BE00004D0BD42F1D0B542EFD010E0CD43AD0599
:107BF0000DD4C16AB94201D1012103E0C16AB14289
:107C000001D10821C162BDE8F04102F0AFBD1D07FE
:107C100016D4CD43AD0513D4416CC9B21161416B8B
:107C200011B9826B002AD0D0896A19B9816B896A2F
:107C30000029CAD00068416841F400614160C4E78E
:107C40009D0706D4CD43AD0503D4BDE8F04102F055
:107C5000E1BCE443526864074FEA025215D4002A9B
:107C6000B3DB1A0608D4CA43520505D45A0705D512
:107C7000BDE8F04102F04CBC5A07A6D4C9438905BF
:107C8000A3D4BDE8F04102F001BC002A9DDB5A06F6
:107C90000CD4CA43520509D45A0702E00FE023E08E
:107CA0000FE005D5BDE8F04102F0A7BB5A078CD420
:107CB000C943890589D4BDE8F04102F035BB946918
:107CC0006DE7556825F480655560E243540700D59B
:107CD0000121120601D5828900E0028B80F83C3038
:107CE00092B2FFF74AFF70E7DC0606D4CC43A40546
:107CF00003D4BDE8F04102F081BD212E27D0292E0A
:107D000025D05C0655D4CC43640552D45B0752D5CC
:107D100090F83D10438D002B91D01269436A1A7080
:107D2000426A521C4262428D521E4285428D002A96
:107D300085D12A29D7D101684A6822F480624A6035
:107D40002221016380F83D5000F0DCFA3DE71C067B
:107D500023D4CC43640520D45B0720D590F83D1094
:107D6000438D002BBFD0436A1B781361426A521CBB
:107D70004262428D521E4285428D002AB3D129298A
:107D8000B1D101684A6822F480624A60212101630E
:107D900080F83D5000F0B7FA17E75B07A3D4C9435A
:107DA0008905A0D4418D00299DD0416A09781161CF
:107DB0000AE05B0797D4C943890594D4418D002913
:107DC00091D01169426A1170416A491C4162418D2A
:107DD000491E4185F9E6704790F83D007047000064
:107DE00070B504001BD094F83D00002520B984F83C
:107DF0003C50204600F00EFA242084F83D00206814
:107E0000016821F00101016000F0D8FC4D4A616871
:107E1000914201D84C4900E04C49884201D20120EE
:107E200070BD4B492368B0FBF1F15E6826F03F0658
:107E30000E435E606368934206D94FF496735943CC
:107E40004FF47A73B1FBF3F12368491C1E6A26F0E4
:107E50003F06314319626168914210D84900401EC3
:107E6000B0FBF1F2521CC2F30B02042A01D204202F
:107E700022E0B0FBF1F0401CC0F30B001CE0A36853
:107E8000F3B301EBC10202EB0116421EB2FBF6F2A4
:107E9000521C42F48042120549D093B301EBC10257
:107EA00002EB0111401EB0FBF1F0401CC0F30B00CF
:107EB00040F4804040F400402168CA694CF6FF73EA
:107EC0009A431043C861D4E90701084321680A684E
:107ED00022F0C00210430860D4E903010143206886
:107EE000826848F2FF339A4311438160D4E9050167
:107EF00008432168CA6822F0FF021043C86001E00D
:107F00000EE016E02068016841F00101016025647F
:107F1000202084F83D00256384F83E50002070BD89
:107F200001EB4106421EB2FBF6F2521CB3E7012000
:107F3000C2E701EB4101401EB0FBF1F0401CC0F371
:107F40000B00B7E7A086010080841E0000093D00F9
:107F500040420F002DE9FF4F81B089460446FFF7EC
:107F600005FE054694F83D004FF0010820287AD11F
:107F7000192301224B492046009502F0EDFC002810
:107F800071D194F83C0001286DD0012084F83C00A8
:107F900020680168C90703D1016841F0010101604F
:107FA0002068016821F400610160242084F83D000C
:107FB000002626643C48E0624FF0011B2027206821
:107FC000016841F480710160009500225946204605
:107FD000049B02F0C1FC002856D1216809F0FE0084
:107FE0000861FFF7C3FD2168054648694969C0F388
:107FF0004000C1F380214FF0A00A0FE0FFF7B6FD6B
:10800000411B0498814200D808B984F83DA021683A
:1080100048694969C0F34000C1F3802194F83D20CC
:10802000A02A02D008B90029E8D084F83D70206861
:108030004169C943890717D4016841F4007101609F
:10804000206841698069192301221649204600955C
:1080500002F082FCC0B984F83D7084F83C600020D6
:1080600005B0BDE8F08F1BE0016841F400710160CC
:1080700021686FF480604861192301220949204674
:10808000009502F069FC08B10120E9E7039808F1C6
:108090000108804593D384F83D7084F83C60F3E791
:1080A0000220DDE7020010000000FFFF704770476C
:1080B00070470000F8B500250446009590F83D0093
:1080C00020287AD1474846F2A8160068B0FBF6F09F
:1080D00000EBC00606EB0010202600900098401E22
:1080E000009010D020688069C0438007F6D594F8CE
:1080F0003C00012874D0012084F83C002068076807
:10810000FF070AD00DE044F8305F6673A57320695D
:1081100040F020002061257335E0076847F0010733
:1081200007602068076827F400670760212084F84B
:108130003D00102084F83E00256462626385608DF6
:1081400020852948E0626164208DB8B3616B2748BF
:108150008862616B26480863606BC562606B45632B
:108160002268238D1032616A606BFFF7BBFB60B140
:1081700084F83D6084F83E5054F8400F40F0100001
:1081800044F8040925700120F8BD2068016841F415
:10819000806101602068016841F48071016084F8A9
:1081A0003C502068416841F440714160206841685A
:1081B00041F4006141600020F8BD11E0FFE7206854
:1081C000016841F4806101602068016841F48071B8
:1081D000016084F83C502068416841F4E061E9E7BF
:1081E0000220E9E75C0000200000FFFFBDA00008BE
:1081F0008BA000087047000010B5044600680449D1
:10820000884204D12046FFF7E7FD2028FAD110BDAF
:1082100000580040F0B585B0002405460094019454
:10822000029403940068324988425FD13148C169A1
:1082300041F48001C161C16901F480010491816947
:1082400041F008018161816901F0080104914169EF
:1082500041F0010141614069694600F0010004906C
:108260004FF44060009012200190032003902248B8
:10827000FFF782FB032000F0FFF8002203212120FA
:1082800000F0DAF8212000F0C9F81D481B498026CB
:10829000016044618461C0E9036410210F02C76179
:1082A000C0E9011468634562FFF7EEFA002203217A
:1082B0000E2000F0C1F80E2000F0B0F810480F4971
:1082C00044381431C0E9001444618461C0E9036496
:1082D000C7618460A8634562FFF7D6FA00220321D4
:1082E0000F2000F0A9F80F2000F098F805B0F0BDBD
:1082F0000058004000100240000C014044000240C1
:108300006C40002070477047024881680278114431
:108310008160704750000020074810B5016841F0A7
:1083200010010160032000F0A7F80F2000F006F80C
:1083300000F050F8002010BD0020024030B5054686
:10834000204887B0C16941F00101C161C06906A937
:1083500000F00100009001A800F010FA0498B8B1F4
:1083600000F02CFA400018494FF08042B0FBF1F1C8
:108370001648491E0260416040F2E7320021C0E920
:1083800003218160816101F035F8040003D015E01C
:1083900000F014FAE7E70D4801F078F804000DD179
:1083A0001C2000F03BF8102D07D2002229461C208B
:1083B00000F042F80648056000E0012407B02046BE
:1083C00030BD00000010024040420F00B81F0020E6
:1083D000540000200F4808B5816941F00101816116
:1083E000816901F001010091C16941F08051C161D1
:1083F000C069002200F0805000900F21901E00F014
:108400001BF80548416821F0E06141F000714160CE
:1084100008BD00000010024000000140002809DBF8
:1084200000F01F02012191404009800000F1E0208E
:10843000C0F8001170470000F0B40E4B1B680C46EA
:10844000C3F30223C3F10705042D00D90425191D28
:10845000072901D2002300E0DB1E012606FA05F100
:10846000491E214099409E40761E16403143F0BC83
:1084700006F074BB0CED00E0064900F00702086846
:108480004FF6FF03184040EA0220034A10430860F9
:10849000704700000CED00E00000FA0510B529A4BB
:1084A00001461DCC86B08DE81D002AA02A4C00682C
:1084B00004900020012923D002293AD010291DD18F
:1084C00061682268D20119D5C1F38342C9031DF83E
:1084D000020009D5616804AAC1F34041515C1F4AFA
:1084E000B2FBF1F1484301E01D494843616849028C
:1084F00004D440005FF00301B0FBF1F006B010BD02
:10850000226AC2F30121012903D1920701D5C803D0
:10851000F4E7022905D1626A920702D549F6404084
:10852000ECE70329EAD121688903E7D54FF224401B
:10853000E4E700F053F96168C1F38131491C490057
:10854000DAE7000002030405060708090A0B0C0D10
:108550000E0F1010010200000010024000127A00FD
:1085600000093D002DE9F84305460078354CC00769
:1085700054D0E0690026C00008D4E06940F0805083
:10858000E061E069012600F0805000902E4801680B
:10859000C90512D40168804641F480710160FFF77B
:1085A000E5FA074605E000BFFFF7E0FAC01B6428C4
:1085B00023D8D8F80000C005F6D5206A10F4407022
:1085C00021D0A98801F4407181421CD0206A1F4942
:1085D000012220F440700A6000220A602062C00775
:1085E00011D0FFF7C3FA074641F2883808E000BF10
:1085F000FFF7BCFAC11B414502D90320BDE8F8834F
:10860000206A8007F4D5206A696820F44070084326
:1086100020621EB1E06920F08050E0612878800778
:1086200005D56068A96820F4404008436060287858
:10863000C00605D56068E96820F4800008436060E2
:108640000020DBE70010024000700040400442427E
:108650002DE9F0470F46050061D0434E306800F029
:108660000700B84209D2306820F007003843306074
:10867000306800F00700B84251D128683B4C8107B0
:1086800012D5400703D5606840F4E0606060287848
:10869000000703D5606840F4605060606068A968B6
:1086A00020F0F000084360602878C00728D0686890
:1086B000012810D02168022810D0890700292EDA5D
:1086C000616821F0030101436160FFF74FFA8046C2
:1086D00041F288390DE021688903EFE78901EDE770
:1086E000FFF744FAA0EB0801494502D90320BDE891
:1086F000F0876068696800F00C00B0EB810FEFD183
:10870000306800F00700B8420BD9306820F007004D
:1087100038433060306800F00700B84201D00120D3
:10872000E5E72878400705D56068E96820F4E0604F
:10873000084360602878000706D56068296920F43E
:10874000605040EAC100606000F058F86168084A73
:10875000C1F30311515CC84006490860064800682F
:10876000FFF7ECFD0020C2E70020024000100240AD
:108770006B3A01085C000020540000200F220260C8
:108780000C4A536803F003034360536803F0F0039B
:108790008360536803F4E063C36052684FF4E0639E
:1087A00003EAD20202610448006800F00700086092
:1087B00070470000001002400020024004480549B4
:1087C00000684968044AC1F30221515CC8407047FF
:1087D0005C000020001002407B3A01080448054973
:1087E00000684968044AC1F3C221515CC84070471F
:1087F0005C000020001002407B3A010812A185B005
:108800000FC98DE80F0014A0144A00680490516845
:10881000134801F00C03042B10D0082B0ED1C1F328
:108820008343C9031DF803000AD5516804AAC1F3A4
:108830004041515C0A4A5043B0FBF1F005B070472B
:1088400008494843FAE7000002030405060708093F
:108850000A0B0C0D0E0F1010010200000010024058
:1088600000127A0000093D002DE9F84F040070D095
:108870002078C04DC00749D06868C0F38100012846
:1088800007D06868C0F38100022809D16868C00376
:1088900006D52868800339D560680028E7D035E020
:1088A0006068B0F5803F0BD010B1B0F5A02F11D0AB
:1088B000286820F480302860286820F4802002E0B6
:1088C000286840F480302860606890B1FFF74EF966
:1088D00006460AE0286840F480202860F0E700BFE0
:1088E000FFF744F9801B642873D828688003F7D504
:1088F0000CE0FFF73BF9064605E000BFFFF736F94D
:10890000801B6428F0D828688003F7D420789A4E1A
:1089100080074FF001094FF0000839D5686810F062
:108920000C0F07D06868C0F38100022809D168687D
:10893000C00306D42868800714D52069012808D10F
:1089400010E02069B0B1C6F80090FFF70FF90746B4
:1089500005E00AE1FFF70AF9C01B0228C4D828681D
:108960008007F7D52868616920F0F80040EAC10067
:1089700028600DE0C6F80080FFF7F8F8074604E02D
:10898000FFF7F4F8C01B022823D828688007F7D423
:10899000207800072CD57948A169D9B1C0F800909A
:1089A000FFF7E4F8074604E0FFF7E0F8C01B0228F1
:1089B0000FD8686A8007F7D571484FF4FA510068FC
:1089C000B0FBF1F0009000BF0098411E0091FAD278
:1089D0000EE080E0C0F80080FFF7C8F8074604E02A
:1089E000FFF7C4F8C01B022875D8686A8007F7D45F
:1089F0002078400760D5E8690027C00008D4E869FE
:108A000040F08050E861E869012700F08050009054
:108A10005C480168C90513D40168834641F480713C
:108A20000160FFF7A3F8824606E000BFFFF79EF85B
:108A3000A0EB0A0064284ED8DBF80000C005F5D58D
:108A4000E06801280AD008B1052813D0286A20F070
:108A500001002862286A20F0040002E0286A40F041
:108A600001002862E06841F2883B98B1FFF77EF888
:108A700082460BE0286A40F004002862EEE700BF5F
:108A8000FFF774F8A0EB0A0159455AD8286A800705
:108A9000F6D50CE0FFF76AF8824605E0FFF766F8C6
:108AA000A0EB0A0159454CD8286A8007F6D41FB1BB
:108AB000E86920F08050E861E06988B36968C1F333
:108AC0008101022944D00228C6F8608004D0FFF753
:108AD0004DF8044638E034E0FFF748F8074604E074
:108AE000FFF744F8C01B02282BD828688001F7D470
:108AF000206AB0F5803F05D16868A16820F4003095
:108B000008436860D4E908010843696821F47411D6
:108B100008436860C6F86090FFF728F8044606E04E
:108B200025E000BFFFF722F8001B022809D82868BB
:108B30008001F7D51BE000BFFFF718F8001B0228E3
:108B400002D90320BDE8F88F28688001F4D40EE034
:108B50000128F7D06868226A00F48031914204D17C
:108B6000616A00F47010884201D00120EAE7002019
:108B7000E8E7000000100240000042428004424248
:108B80005C00002000700040F8B505004FF00000C8
:108B900016460C46009006D02CB1002269462846A5
:108BA00000F019F808B10120F8BD287B2070E87B9F
:108BB000E070697B6170A97BA17056B103F0F7F892
:108BC000E070607803F0F3F86070A07803F0EFF8DD
:108BD000A0700020F8BD2DE9F04791460C465FEAF1
:108BE00000084AD084B3D8F800004068400744D455
:108BF000404603F0B2F94FF461620546B0FBF2F172
:108C0000B0FBF2F302FB13503C23B0FBF3F0B5FBD7
:108C1000F2F6607002FB1650B0FBF3F203FB120099
:108C2000A070182931D31820B1FBF0F7B1FBF0F296
:108C300000FB12102070404603F088F9411C04D05C
:108C4000A84202D9461B02E017E04FF0FF36A7EB1F
:108C5000071000EB4000C0EB001005EBC0152946E3
:108C6000404603F0C9F940B9701C01D0711900E009
:108C70003146404603F0ACF910B10120BDE8F08761
:108C80003946404603F09EF800E02170B9F1000F2C
:108C90000BD0207803F08BF82070607803F087F811
:108CA0006070A07803F083F8A0700020E6E7000071
:108CB00070B5040003D0607C002610B105E00120EF
:108CC00070BD2674204600F043F8022060742046F0
:108CD00000F002F9042578BB204603F0CAF858BB1F
:108CE0002068416821F007014160A06820B1174861
:108CF000016821F0010101601448001F0168A268A9
:108D000021F46071114301606068411C04D10120AD
:108D1000FFF7C4FB80B1401E21688A6822F00F0271
:108D200042EA10428A602168CA6860F30F02CA6092
:108D3000204603F0B9F808B16574C0E7E673012076
:108D40006073A0736074002070BD0000306C004040
:108D500000680349884202D1024901200860704737
:108D6000002800403C0442422DE9F0410D46040039
:108D70003BD0C5B3207C01283AD04FF0010884F8DD
:108D8000108002206074E87872B303F007F8E07393
:108D9000687803F003F86073A87802F0FFFFA0730F
:108DA000C2B2617BE07B03F0E8F8207328702046B4
:108DB00003F0D3F84FF46161B0FBF1F100251829FD
:108DC0002DD91822B1FBF2F1A1EB011101EB410108
:108DD000C1EB011100EBC1163146204603F00CF93E
:108DE0000427C8B90BE000E004E00120BDE8F081F1
:108DF0000220FBE7E07368786073A878CFE720462D
:108E000003F0A4F8411C0AD0B04208D2064901443C
:108E1000204603F0DDF810B167742574E5E784F8A7
:108E2000118025740020E1E7805101002DE9F04117
:108E30000D46040024D01DB3207C012823D04FF020
:108E4000010884F81080022060742878EAB102F0EA
:108E5000A5FF4FF4616100FB01F6687802F09EFF08
:108E6000C0EB001006EB8006A87802F097FF3518DB
:108E70002946204603F0C0F80026042710BB0FE067
:108E80000120BDE8F0810220FBE74FF46161484317
:108E90006978C1EB011100EB8100A9784518E7E77B
:108EA0002068416821F005014160204603F04EF83A
:108EB000411C0AD0A84208D206490144204603F0CA
:108EC00087F810B167742674DAE784F81180267485
:108ED0000020D6E78051010070B504000AD0206858
:108EE000416821F008014160FEF740FE05464FF45D
:108EF0007A7608E0012070BDFEF738FE401BB042D4
:108F000001D9032070BD206840680007F4D5002017
:108F100070BD70B5040004D094F85100002510B164
:108F200006E0012070BD84F85050204600F036F86D
:108F3000022084F851002068016821F0400101609E
:108F4000D4E901010843D4E90312114308436169DC
:108F50000843218B01F400710843E1690843216A49
:108F60000843A16A084321680860A069042101EA56
:108F7000104021684860A06AB0F5005F02D1216806
:108F8000E06A08612068C16921F40061C16165651A
:108F9000012084F85100002070BD000000B5006879
:108FA000114985B088421CD11048816941F0040103
:108FB0008161816901F004010491816941F480516A
:108FC00081618069694600F480500490E02000903F
:108FD0000220019001200290032003900448FEF734
:108FE000CBFC05B000BD0000003001400010024085
:108FF000000801402DE9F84F044690F85000002782
:109000001D461646884601280DD04FF0010B84F806
:1090100050B0FEF7ABFD814694F85100BA460128E6
:1090200004D00227A4E00220BDE8F88FB8F1000FB9
:1090300074D0002E72D0032084F85100C4F854A0DC
:10904000C4F83080A686E686C4F838A0A4F83CA010
:10905000A4F83EA0C4F844A0C4F840A0A068B0F5AD
:10906000004F04D12068016841F480410160A06A8A
:109070004FF40058404509D12068016821F400519F
:1090800001602068016841F40051016020680168B6
:10909000490603D4016841F040010160E068B0F581
:1090A000006F606803D030B3012E24D041E008B1D6
:1090B000012E1CD1206B21680088C86006E0206862
:1090C0008168890709D5216B0988C160206B801CE4
:1090D0002063E08E401EE08609E0FEF747FDA0EB2E
:1090E0000900A84202D3681C01D038E0FDB1E08E2F
:1090F0000028E4D120E0206B21680078087306E0A6
:109100002068816889070AD5216B09780173206B73
:10911000401C2063E08E401EE0860AE027E0FEF758
:1091200025FDA0EB0900A84202D3681C01D016E07F
:10913000ADB1E08E0028E3D1A06A404504D120689B
:10914000016841F4805101604A462946204603F0F7
:1091500041F808B120206065A06810B105E0032740
:1091600006E02068C16880680090606D00B101274A
:1091700084F851B084F850A0384655E72DE9F84FEF
:10918000044690F8500000260A9F1D4692468B46E2
:109190004FF0010901280ED0012084F85000FEF79D
:1091A000E5FC804694F85100616801280CD0B1F5C7
:1091B000827F07D102E00220BDE8F88FA16809B9DB
:1091C000042801D002260BE1BBF1000F37D0BAF121
:1091D000000F34D095B394F85100042802D0052034
:1091E00084F8510000206065C4F838A0E587A587A1
:1091F000C4F830B0E586A58620646064A06A4FF4A8
:10920000005A504509D12068016821F400510160DD
:109210002068016841F40051016020680168490636
:1092200003D4016841F040010160E068B0F5006FCF
:10923000606806D0F0B3012D51D094E0FFE701261D
:10924000CEE008B1012D43D1206B21680088C860B1
:10925000206B801C2063E08E401EE08638E0206892
:109260008168890719D5E18EB9B1B9F1010F14D11F
:10927000216B0988C160206B801C2063E08E401E3A
:10928000E086E08E4FF0000938B9A06A504504D15D
:109290002068016841F48051016020688168C90735
:1092A0000ED0E18F61B1C068A16B0880A06B801CFB
:1092B000A06300E013E0E08F401EE0874FF001095B
:1092C000FEF754FCA0EB0800B84201D3781C60D133
:1092D000E08E0028C3D1E08F0028C0D149E0206B88
:1092E000216800780873206B401C2063E08E401ECC
:1092F000E08638E020688168890719D5E18EB9B128
:10930000B9F1010F14D1216B09780173206B401C56
:109310002063E08E401EE086E08E4FF0000938B9F1
:10932000A06A504504D12068016841F48051016071
:1093300020688168C9070CD0E18F51B1C068A16B6A
:109340000870A06B401CA063E08F401EE0874FF0C8
:109350000109FEF70BFCA0EB0800B84202D3781C11
:1093600001D016E0AFB1E08E0028C3D1E08F002815
:10937000C0D1A06A504510D101223B46114620467B
:10938000CDF8008002F036FF28B1606D40F0020099
:109390006065032624E02068C06820688168C943AE
:1093A000C9060DD4616D41F002016165016821F4C7
:1093B000005101602068016841F4005101600126FC
:1093C00042463946204602F005FF18B1012620200A
:1093D000606505E0A06818B92068C16880680090E1
:1093E000012084F85100002084F850003046E3E664
:1093F0007047704710B5040003D094F83D0010B1D9
:1094000007E0012010BD002084F83C00204600F059
:109410001FF8022084F83D00211D206803F042FD62
:10942000012084F8460084F83E0084F83F0084F868
:10943000400084F8410084F8420084F8430084F836
:10944000440084F8450084F83D00002010BD000071
:1094500008B500680B49884212D10B48816941F474
:10946000006181618069052200F40060009011466E
:109470001920FEF7E1FFBDE808401920FEF7CEBF36
:1094800008BD0000002C01400010024090F83D1083
:10949000012901D001207047022180F83D100168A8
:1094A000CA6842F00102CA6000680B49884208D0CD
:1094B000B0F1804F05D00949884202D0084988425E
:1094C00004D1816801F00701062903D0016841F049
:1094D0000101016000207047002C014000040040A1
:1094E000000800402DE9F0410D46040003D094F837
:1094F0003D0018B108E00120BDE8F081002084F8AB
:109500003C00204600F040F8022084F83D0020682E
:10951000816844F2070291438160211D206803F0B5
:10952000C1FC226890689169166A2B68AF69034391
:1095300040F20330814341EA0721A868EF690843FC
:109540004FF6FC418843E96840EA07200143286957
:109550002F6A000140EA0730084369686D6926F008
:10956000220646EA0515294393602268906154F863
:10957000460B0162012004F81F09E0752076E076B1
:109580002077A0750020B7E700B50068214985B0B5
:1095900088423CD12048C16941F00201C161C169E2
:1095A00001F002010491816941F008018161816942
:1095B00001F008010491816941F001018161806934
:1095C00000F0010004901548416821F4406141F029
:1095D000E06141F400614160416821F0E06141F0E7
:1095E00080714160002001903020009001200290A5
:1095F00069460B48FEF7C0F90320FEF73DFF002245
:1096000005211D20FEF718FF1D20FEF707FF05B0FE
:1096100000BD0000000400400010024000000140B6
:10962000000C014070B590F83E60044690F83F5041
:1096300090F8423090F84320022021B1042914D040
:10964000012E25D11EE0012E22D1012B20D184F83C
:109650003E0084F8420001220021206803F058FCFB
:109660002068C16841F002012FE0012D10D1012ACC
:109670000ED184F83F0084F843000421206803F0F1
:1096800047FC1EE0012D03D1012B01D1012A01D09D
:10969000012070BD84F83E0084F83F0084F8420049
:1096A00084F8430001220021206803F031FC0122EC
:1096B0000421206803F02CFC2068C16841F00201FD
:1096C000C1602068C16841F00401C1602068016880
:1096D00041F001010160002070BD0000F8B5344C7C
:1096E0000546006831496768884218D131486FF0F3
:1096F00002010268116100680068C1064FF00200B3
:109700008DF8000001D5042000E005208DF801004F
:1097100000231A466946384609F064FEF8BD26491A
:109720008842FBD1297F002604292AD00829F5D1B7
:109730006088A8B301208DF8000003208DF8010097
:1097400000231A466946384609F04CFE082128468F
:1097500000F0C8FA618840F6C41251430A22B1FBF6
:10976000F2F1014415A006F013FC2868C16821F04D
:109770000101C1600C21284600F090F96680268026
:10978000F8BD466229686FF0010008612868C16869
:1097900041F00101C1600C21284600F00DF9F8BD2F
:1097A000FFE72088401C2080F9E70000000400400B
:1097B00034000020881C002000080040B0B4BCFC2D
:1097C000CAB1B3A43A25640D0A0000002DE9F041A6
:1097D000054690F83C0000260C46012810D00120D8
:1097E00085F83C0072B1042A1CD0082A2CD00C2A1F
:1097F00050D00126002085F83C003046BDE8F081BD
:109800000220FBE7D4E90012E368286803F08EFB2E
:109810002868816921F00C01816128688169A2684A
:1098200011430FE0D4E90012E368286803F0AAFBB3
:109830002868816921F44061816128688169A26892
:1098400041EA02218161D5E72868D4E9002C277B11
:10985000036A016A21F480710162C16923F4007313
:1098600021F0030141EA0C0121F0F00C39074FF41B
:1098700000774CEA116107EA02221A43C1610262D1
:109880002868C16921F00C01C1612868C169A2681A
:1098900011432BE02868D4E90021E768036AD0F877
:1098A00020C02CF4805CC0F820C0D0F81CC023F489
:1098B00000532CF4407C4CEA012121F4704C4FF60B
:1098C000FF7101EA07314FF4005741EA0C0107EA42
:1098D00002321A43C16102622868C16921F4406101
:1098E000C1612868C169A26841EA0221C16181E7BA
:1098F00010B5040003D094F83D0010B107E001203A
:1099000010BD002084F83C00204600F01FF8022023
:1099100084F83D00211D206803F0C4FA012084F87A
:10992000460084F83E0084F83F0084F8400084F844
:10993000410084F8420084F8430084F8440084F82D
:10994000450084F83D00002010BD000000B500680F
:10995000164985B0884226D11548C16941F00401F5
:10996000C161C16901F004010491816941F00801FC
:1099700081618069694600F0080004900020019030
:109980004FF480700090012002900A48FDF7F4FF28
:109990000320FEF771FD002205211E20FEF74CFD7D
:1099A0001E20FEF73BFD05B000BD00000008004092
:1099B00000100240000C014030B50446002551B1B2
:1099C00004290DD0082910D094F8410094F84520BE
:1099D000012811D10EE094F83E0094F84220F7E7F8
:1099E00094F83F0094F84320F2E794F8400094F88C
:1099F0004420EDE7012A01D0012030BD022059B1F9
:109A0000042912D0082919D084F8410084F84500AF
:109A10000C2938D0012534E084F83E0084F8420057
:109A20002068C26842F0020210E084F83F0084F827
:109A300043002068C26842F0040207E084F8400056
:109A400084F844002068C26842F00802C260012223
:109A5000206803F05DFA0E492068884208D0B0F112
:109A6000804F05D00B49884202D00B49884204D16F
:109A7000816801F00701062903D0016841F0010166
:109A80000160284630BD2068C26842F01002DDE760
:109A9000002C0140000400400008004030B504469E
:109AA0000D460068002203F033FA2068016A41F293
:109AB0001112114207D1016A9210114203D10168BB
:109AC00021F001010160012245B1042D09D0082DCA
:109AD0000AD004F8412F2271002030BD04F83E2F37
:109AE000F9E704F83F2FF6E704F8402FF3E770B5E5
:109AF0000446006801694FF00005C943890715D481
:109B0000C168C943890711D4E91E0161012020778A
:109B1000206880698007204602D0FFF7DFFD04E05F
:109B200000F098F8204600F096F825772068016943
:109B3000C943490717D4C168C943490713D46FF013
:109B400004010161022020772068806910F4407FC1
:109B5000204602D0FFF7C2FD04E000F07BF820466B
:109B600000F079F8257720680169C943090716D400
:109B7000C168C943090712D46FF0080101610420CC
:109B800020772068C0698007204602D0FFF7A6FD35
:109B900004E000F05FF8204600F05DF825772068CB
:109BA0000169C943C90617D4C168C943C90613D49A
:109BB0006FF010010161082020772068C06910F45F
:109BC000407F204602D0FFF789FD04E000F042F814
:109BD000204600F040F8257720680169C943C9078D
:109BE00008D1C168C943C90704D1891E0161204653
:109BF00000F032F820680169C943090609D4C16838
:109C0000C943090605D46FF0800101612046FFF7C2
:109C1000EFFB20680169C943490609D4C168C943FB
:109C2000490605D46FF040010161204600F06FF84D
:109C300020680169C94389060BD4C168C9438906F4
:109C400007D46FF0200101612046BDE87040FFF7A6
:109C5000D0BB70BD7047704738B505460068B0F19D
:109C6000804F0FD0194988420ED1194C218861B11B
:109C700018A006F08DF920880121012808D00228BB
:109C80000BD015E0FEF740FB38BD6088401C1AE0A1
:109C90008DF800108DF8011004E08DF800100220FE
:109CA0008DF8010000231A466946606809F09AFBA6
:109CB0002868C16821F00101C1600C212846FFF726
:109CC000EDFE00202080608038BD000000080040CC
:109CD00034000020B0B4BCFCB4CECAFD3A25640DFB
:109CE0000A0000000246002041B1042909D00829D9
:109CF0000AD00C2901D11068006C70471068406BC5
:109D000070471068806B70471068C06B7047704771
:109D100010B504460068416994F83920C1F3C011B8
:109D2000212A0BD151B1416921F080014161206BA1
:109D300008B1FDF78BFC204604F006F82068416965
:109D400094F83A20C1F38011222A0BD151B1416914
:109D500021F040014161606B08B1FDF777FC2046BE
:109D600003F0E4FF002010BD704770B5040004D07C
:109D700094F83900002510B106E0012070BD84F888
:109D80003850204600F022F8242084F8390020685A
:109D9000C16821F40051C160204603F0DFFF206854
:109DA000016921F4904101612068416921F02A0193
:109DB00041612068C16841F40051C160E563202021
:109DC00084F8390084F83A00002070BD2DE9F0478E
:109DD000054600684349444C01260327DFF80CA1DF
:109DE00086B04FF000084FF00209884227D1A069E1
:109DF00040F00400A061A06900F004000490A06994
:109E000040F48040A061A06900F480400490606943
:109E100040F0010060616069CDE9026700F0010077
:109E200004904815CDE9000969465046FDF7A4FDA8
:109E30002015CDE9000869465046FDF79DFD2C49E7
:109E4000286888424BD1A06940F00400A061A06955
:109E500000F004000490E06940F40030E061E06943
:109E600000F400300490606940F0010060616069B6
:109E7000694600F0010004900420CDE90009544631
:109E80005046CDE90267FDF777FD0820CDE90008CF
:109E9000464669462046FDF76FFD03220021262035
:109EA000FEF7CAFA2620FEF7B9FA134C1148E4E986
:109EB00041068020C4E90260266180016661C4E930
:109EC00006600E480646FDF7DFFC6E63052211466C
:109ED00010206562FEF7B0FA1020FEF79FFA06B078
:109EE000BDE8F08700380140001002400008014042
:109EF000004400406C0002401C05002020060020A9
:109F0000F8B5044690F83A0020283CD1C1B3BAB362
:109F100094F83800012836D0012084F83800A16276
:109F2000A2850025E563222084F83A00636B174878
:109F30009862636B1648D862636B16481863606B4F
:109F4000134645630846666B216802463046091D84
:109F5000FDF7C8FC206801684168009184F838501A
:109F6000C16841F48071C1602068416941F001011C
:109F700041612068416941F0400141610020F8BD24
:109F8000FFE70120FBE70220F9E70000E7DC00081B
:109F900023DD00089DDC000870477047704770475C
:109FA00010B50F4801F068FC0D480E4981600E495C
:109FB0000968016001460D4801F067FC08490C483A
:109FC00001F063FC06490B4801F05FFC04490A48B4
:109FD00001F05BFCBDE810400149084801F055BCA8
:109FE000144100209F9F00081C01002034410020E4
:109FF000544100207441002094410020B4410020CD
:10A000000148FDF7BBBD0000D43F002010B5406AF9
:10A0100090F83D30426B00219162826B9162026840
:10A02000146824F4806414604185426B5163826B30
:10A0300051630268146824F00104146090F83D2014
:10A040002024602A0BD0282232EA03030FD080F8A4
:10A050003D4080F83E1000BFFDF7BDFE10BD80F80A
:10A060003D4080F83E100164FDF786FD10BD036899
:10A070001C6844F001041C6003681C6844F480649C
:10A080001C60016380F83D20E6E710B5406A0021BE
:10A09000426B9162826B91620268136823F4806361
:10A0A00013604185202280F83D2080F83E10016C2D
:10A0B00041F010010164FDF78EFE10BD2DE9F04165
:10A0C000446A94F83D2094F83E60E16A2068436851
:10A0D00023F440734360636B00204FF022059862C5
:10A0E000A36B9862212333EA02070CD035EA0207FA
:10A0F00001D1202E07D094F83E20002A21D0628D75
:10A10000012A20D024E021684E6826F400664E60C3
:10A1100060852820292A02D02A2A07D00CE0236350
:10A1200084F83D002046FEF7EEF805E0256384F84C
:10A130003D002046FEF7E6F82068416841F4407192
:10A140004160BDE8F0812268136823F480631360E6
:10A150002268536823F44073536011F5803F06D0A2
:10A16000082904D0B1F12A4F01D0202904D1216857
:10A170000A6842F400720A6021684A6822F4805238
:10A180004A6021684A6822F400624A606085216C56
:10A1900019B12046FDF71FFED3E7202184F83D10BA
:10A1A00094F83E1084F83E00402905D01220206328
:10A1B0002046FDF77CFFC4E720632046FEF71AF82F
:10A1C000BFE7000070B5044690F83D0094F83E10DB
:10A1D000102906D1222804D121680A6822F40062DD
:10A1E0000A60282131EA00024FF000054FF02006F6
:10A1F00026D021684968090503D4602801D084F875
:10A200003D60256384F83E5020684168090537D5D4
:10A21000416821F400614160606B384990F8212069
:10A22000012A11D04163606BFDF734FA38B320681E
:10A23000016821F00101016084F83D60606B1CE061
:10A24000256384F83D10DFE7A06B4163A06BFDF749
:10A2500021FAA0B120684169C943490605D40069C3
:10A26000616A0870606A401C60622068016821F0C1
:10A270000101016084F83D60A06B416B884710E0EC
:10A2800094F83D10602923D04169C943490605D49B
:10A290000069616A0870606A401C60622046FDF7D0
:10A2A0009AFD94F83D00216C490710D528280ED15D
:10A2B0002068416821F4E06141601148E062256353
:10A2C00084F83D6084F83E502046FDF7EFFE70BDF7
:10A2D00084F83D6025644169C943490605D4006995
:10A2E000616A0870606A401C60622068016821F041
:10A2F000010101602046FDF73FFCD2E70DA00008F8
:10A300000000FFFF064805490160064941604FF41F
:10A310008041016100218160FDF762BD005800406D
:10A32000D43F0020801A060010B5C26A438D016830
:10A33000042B06D0438D032B08D0438D022B1DD058
:10A3400012E04A6822F480624A600CE04B6823F411
:10A3500080634B60042A06D0022A04D001680A6890
:10A3600022F480620A6001680969426A1170416AD8
:10A37000491C4162418D491E418510BD012A30D0E2
:10A38000102A2ED0042A30D0022A2ED00A6842F495
:10A3900000720A6001680969426A1170416A491CC9
:10A3A0004162428D521E4285026812690A70416AFA
:10A3B000491C4162418D491E418501684A6822F469
:10A3C00040724A60202180F83D1090F83E20002124
:10A3D000402A80F83E100CD012210163FDF767FE81
:10A3E00010BD0A6822F48062D3E70A6842F48062F2
:10A3F000CFE70163FDF7FEFE10BD10B590F83D10EC
:10A40000222914D1418D032912D901680969426AB0
:10A410001170416A491C4162418D491E4185418D3F
:10A42000032904D10068416821F48061416010BDB6
:10A43000C26A022AFBD0012901D00029F7D10168A4
:10A440000A6822F480620A6001684A6822F4E062C5
:10A450004A6001680969426A1170416A491C416297
:10A46000418D491E4185202180F83D1090F83E2005
:10A470000021402A80F83E1004D012210163FDF72C
:10A4800016FE10BD0163FDF7B5FE10BD10B5C26A22
:10A4900090F83D1021290BD1418D51B1416A0268DC
:10A4A00009781161416A491C4162418D491E41850B
:10A4B00010BD20230021082A13D0202A11D012F524
:10A4C000803F0ED00268546824F4E0645460112286
:10A4D000026380F83E1080F83D3000BFFDF7E8FDD4
:10A4E00010BD0268546824F4E06454600268146883
:10A4F00044F400741460016380F83D3090F83E200D
:10A5000080F83E10402AE9D1FDF776FE10BD00002C
:10A5100010B590F83D1090F83E30C26A048D64B1D9
:10A52000212903D0402B21D122291FD1418DA1B354
:10A5300090F83E10402937D046E02129F2D120235F
:10A540000021082A13D0202A11D012F5803F0ED006
:10A550000268546824F4E06454601122026380F8B5
:10A560003E1080F83D3000BFFDF7A2FD10BD02682F
:10A57000546824F4E06454600268146844F400747D
:10A580001460016380F83D3090F83E2080F83E1062
:10A59000402AE9D1FDF730FE10BDFFE700684168B1
:10A5A00021F480614160F7E7016DC1B1016D0129BE
:10A5B00022D0016D0229EFD190F83D10222923D03D
:10A5C00090F83D102129E7D1416A026809781161AC
:10A5D000416A491C4162418D491E4185DCE7C16CDD
:10A5E0000129816C02D0C1F3072107E00268C9B2DA
:10A5F0001161016D891C05E0816CC9B202681161AD
:10A60000016D491C0165C7E70068016841F480716C
:10A610000160C1E778B590F83E50C26A046B90F8CB
:10A620003D6000230168222E73D1066D0EB9402DC6
:10A630006FD0056D1DB90569B5F5404F1BD0458D2F
:10A6400095B3468D484D012E20D0448D022C4DD01F
:10A650000C6844F480640C6001684C68240579D56A
:10A66000AA4273D0012A71D0082A6FD0102A6DD067
:10A67000202A6BD06EE04A698A6900920A6842F427
:10A6800080720A60016D491C016578BDAA4214D12F
:10A690000A6822F480620A6001684A68120504D5DB
:10A6A0000A6822F4806217E0FFE74A698A6900922B
:10A6B0000A6842F400720A6050E0082A10D0202A8A
:10A6C0000ED0122C0AD0042A03D0022A01D0102A5C
:10A6D000E6D10A6842F480620A603BE0012ADFD0DA
:10A6E0000A6822F480620A600168DEE7042A11D059
:10A6F000022A0FD0102A0DD00C6844F400640C60BC
:10A7000001684C698C6900940C6824F480640C60C6
:10A7100008E025E00C6844F480640C6001684C6932
:10A720008969009101684C68240517D5AA4207D0B1
:10A73000012A05D0082A03D0102A01D0202A0DD1E1
:10A740004A6842F480524A6008E0FFE74A6842F4EF
:10A7500080524A6001684A6989690091036578BD41
:10A7600048698869009078BD0000FFFF90F83E10AE
:10A77000402910D00169B1F5804F19D0016DB1B3F6
:10A78000016D012910D1416C5FF0F10201F44071BB
:10A7900042EAD11106E0016D0029416C05D0C9B231
:10A7A00041F0010100680161704701F0FE01F9E725
:10A7B00090F83D102129416C07D0C9B241F0010148
:10A7C00002681161416B31B902E001F0FE01F7E767
:10A7D000826B002AE8D0896A19B9816B896A0029DD
:10A7E000E2D00068416841F4006141607047FFE7D2
:10A7F000416CF02201F44071CAE70000F8B590F80E
:10A800003D6004460068416821F4E06141602068D1
:10A81000002541690091016841F001010160206853
:10A82000016821F48061016020684168090520D534
:10A83000474F222E48D02A2E46D0616B09684968BE
:10A840006185618D19B1216C41F004012164416879
:10A8500021F400614160606BFCF768FF012808D0BB
:10A86000606B4763606BFCF715FF10B1606B416B69
:10A870008847608D08B320684169C943490708D4F7
:10A880000069616A0870606A401C6062608D401EE9
:10A89000608520684169C943490608D40069616A36
:10A8A0000870606A401C6062608D401E6085608D2B
:10A8B00018B1206C40F004002064206C00B32046E6
:10A8C000BDE8F840FFF77EBCA16B09684968618567
:10A8D000618D19B1216C41F004012164416821F4BA
:10A8E00000614160A06BFCF721FF0128C1D0A06B83
:10A8F0004763A06BFCF7CEFE0028BAD0A06BB6E78A
:10A900002A2E06D12563282084F83D002046FDF735
:10A91000F9FC94F83D10202028290DD0216B222924
:10A9200001D0222E07D1256384F83D0084F83E50E3
:10A930002046FDF7E7FCF8BD0649E162256384F88F
:10A940003D0084F83E502046FDF7B0FBF8BD000006
:10A950000DA000080000FFFF2DE9F0471E469046BD
:10A960000D460446C1F30747DDF8209008E0701C4F
:10A9700006D0FDF7FBF8A0EB0900B0420FD876B186
:10A980002068012F18D0806925EA00000004000C1F
:10A9900014D000214145EAD00020BDE8F087002016
:10A9A00044F8300F20216173A073216941F0200128
:10A9B000216120730120F0E74069E5E70121E9E723
:10A9C00030B5194885B0816941F00801816181691C
:10A9D00001F008010491816941F0080181618069F9
:10A9E000124D00F0080004908020009011200324F4
:10A9F0000190694603942846FCF7BEFF4020009072
:10AA000001200190694603942846FCF7B5FF012216
:10AA100040212846FDF7A5F8012280212846FDF7B0
:10AA2000A0F805B030BD000000100240000C01404D
:10AA30002DE9F0412B4D07460024224640212846AF
:10AA4000FDF78FF81420FCF7F3F8002601224021CF
:10AA50002846FDF786F81420FCF7EAF86006040E95
:10AA600080212846FDF778F808B1641CE4B2142070
:10AA7000FCF7DEF8002240212846FDF772F814208A
:10AA8000FCF7D6F8761CF6B2082EDFD3CFB1002241
:10AA900080212846FDF765F8012240212846FDF770
:10AAA00060F80220FCF7C4F8002240212846FDF798
:10AAB00058F8012280212846FDF753F82046BDE8CA
:10AAC000F081012280212846FDF74BF80122402128
:10AAD0002846FDF746F80220FCF7AAF8002240219C
