:020000040800F2
:100000009815002009010008AB310008612E000896
:100010001501000817010008190100080000000080
:100020000000000000000000000000001B010008AC
:100030001D010008000000001F0100082101000848
:100040002301000823010008230100082301000800
:1000500023010008230100082301000823010008F0
:10006000230100082301000823010008D91100081A
:10007000E5110008F1110008230100082301000820
:1000800023010008230100082301000823010008C0
:1000900023010008230100082301000823010008B0
:1000A00023010008A93500082301000823010008E6
:1000B000B5350008230100082301000823010008CA
:1000C0002301000823010008230100082301000880
:1000D0002301000835380008230100082301000827
:1000E000230100082301000823010008DFF80CD0D9
:1000F00000F018FB00480047E14300089815002075
:1001000080F308887047000006488047064800478B
:10011000FEE7FEE7FEE7FEE7FEE7FEE7FEE7FEE7B7
:10012000FEE7FEE739350008ED000008202A04DB71
:10013000203A21FA02F00021704721FA02F3D04060
:10014000C2F12002914008431946704740EA01037A
:100150009B0703D009E008C9121F08C0042AFAD27D
:1001600003E011F8013B00F8013B521EF9D2704741
:10017000D2B201E000F8012B491EFBD270470022E9
:10018000F6E710B513460A4604461946FFF7F0FF96
:10019000204610BD421C10F8011B0029FBD1801A1B
:1001A000704700000FB400B58DB010A909900B90F6
:1001B00000914FF0FF300A9000200C900548069007
:1001C000054807906A4609A80F9900F0C5F80DB0D8
:1001D0005DF814FB75030008930300082DE9FF5F29
:1001E000D2E901A74FF00008916999461446DDF85D
:1001F00038B0464601988847054659EA0B0005D0B5
:1002000009E0A169761C019888470546216A2846BD
:1002100088470028F5D1681C03D05FEACA7005D072
:1002200015E04FF0FF3004B0BDE8F09F2068011DDD
:100230002160D0F800800AE05FEACA7001D108F8B6
:10024000015BA169761C7F1E019888470546002F37
:100250001ADD681C18D0B9F1000F0DD0E81705EBB6
:10026000D060421120F01F0059F822102A1A0120F4
:1002700090400142E0D107E0BBF1000FDCD1216AE0
:10028000284688470028D7D0E16901988847BBF104
:10029000000F07D1002E05DD5FEACA7002D10021F0
:1002A00088F80010A068B84203DDBBF1000F03D04E
:1002B00017B16FF00100B6E73046B4E730B50B4632
:1002C000014600202022012409E021FA02F59D4286
:1002D00005D303FA02F5491B04FA02F52844151E5A
:1002E000A2F10102F1DC30BD2DE9F05F05460020EE
:1002F00092469B4688460646814640241BE0284697
:10030000414647462246FFF711FF53465A46C01A58
:10031000914110D311461846224600F015FA2D1AC5
:1003200067EB01084F4622460120002100F00CFA3D
:1003300017EB00094E41201EA4F10104DFDC484602
:1003400031462A464346BDE8F09F0000026811444A
:100350001378016018467047D1600449516104491F
:10036000116200211161114600F014BA4D0300081A
:100370008B070008426842B1016811F8013B23B1C4
:10038000521EC0E90012184670470121C160881E44
:10039000704742685AB1C368016843B983688B42A9
:1003A00005D0491E521CC0E90012002070474FF0D2
:1003B000FF3070472DE9FE4F804681EA0300C00FF1
:1003C0000C46009021F0004123F00045B8EB0200FC
:1003D000A94105D24046214690461C460B4602469E
:1003E00023F00040104347D0270DC7F30A00C3F3A2
:1003F0000A510290401A019040286BDAC3F31300AF
:1004000040F4801B0098924620B10023D2EB030AEF
:1004100063EB0B0B01985946C0F14002504600F0C7
:1004200093F906460D4650465946019A00F09BF94D
:1004300010EB08006141002487EA115284EAE77357
:100440001A4340D0009A62B3019A012A4FEA075238
:1004500015DC001B61EB02014FF0004202EA07527B
:10046000CDE90042001C41F5801132462B4600F0D8
:1004700036FB03B0BDE8F08F40462146F9E7001B8C
:1004800061EB0201001C41F5801300185B4120184C
:10049000A2F5001747EB030140EAD570B6196D418C
:1004A00011E06D084FEA360645EAC0754FEA07527B
:1004B000001B61EB0201001C41F5801149084FEA65
:1004C00030000019514132462B4603B0BDE8F04FD1
:1004D00000F0F6BA0098012240000023D0EB02029F
:1004E00063EBE073009821464FEAE074B8EB00003C
:1004F00061EB0401E9E783F000435BE781F0004131
:1005000058E72DE9FE4F81EA030404F0004421F08E
:10051000004100944FF0000B23F0004350EA010427
:100520005ED052EA03045BD0C3F30A54C1F30A5508
:100530002C44A4F2F3340194A0FB0254C1F3130140
:1005400041F48011C3F3130343F4801301FB02440D
:1005500000FB034E840A970A44EA815447EA835712
:10056000A4FB076802958D0A05FB07854FEA932CCB
:1005700004FB0C542705029D4FEA065847EA16373C
:10058000B5EB08056EEB070C870E920E47EA811754
:1005900042EA8312A7FB0201B6EB0B0164EB0004F5
:1005A0002B0D43EA0C335E1844EB1C50DA465146DF
:1005B000E7FB0201C5F313044FEA0B3343EA14537C
:1005C0004FEA0432019C43EA0603A4F10C040294AE
:1005D000009CCDE900B400F082FA03B0BDE8F08FD2
:1005E00000200146F9E72DE9F04D81EA030404F00B
:1005F000004B21F0004514464FF0000A23F0004163
:1006000050EA050220D054EA01021DD0C5F30A5772
:100610000246C5F31303C1F31300C1F30A5640F4B5
:10062000801543F48013A7EB0608101BD64608F28A
:10063000FD3873EB050002D308F1010801E09218C0
:100640005B41B8F1000F03DA00200146BDE8F08DF0
:1006500000204FF48011064684460EE0171B73EB12
:10066000050705D3121B63EB050306434CEA010C97
:1006700049084FEA300092185B4150EA0107EDD17A
:1006800052EA030012D082EA040083EA050108431B
:1006900005D0101BAB4106D20122002306E0002248
:1006A0004FF0004302E06FF0010253101AEB060016
:1006B0004CEB085110EB0A0041EB0B01BDE8F04D8B
:1006C00000F0FEB9C1F30A52C1F3130140F2FF3347
:1006D00041F480119A4202DA00200146704740F24C
:1006E00033439A42A2F2334202DC5242FFF71EBD6C
:1006F00000F02AB830B5041E71F1000404DB4FF09D
:100700000044404264EB0101141E73F1000405DB58
:100710001C464FF00043524263EB0403994208BF6A
:10072000904230BD064C074D06E0E06840F0010302
:1007300094E8070098471034AC42F6D3FFF7DAFC90
:10074000F445000814460008202A04DB203A00FA89
:1007500002F1002070479140C2F1200320FA03F318
:10076000194390407047202A06DBCB17203A41FA04
:1007700002F043EAE07306E041FA02F3D040C2F12E
:1007800020029140084319467047C0B24FF4F0511F
:1007900000F0F4B92DE9F34F8BB04FF0000801F1F0
:1007A0000C000C464FF0010B46460DF1080A019073
:1007B0006269012101989047051E2DD0252D2CD06E
:1007C000216A8847C0B16269012101989047216A76
:1007D00088470028F7D1411E62690198904700E0E0
:1007E000761CA1690B988847216A88470028F7D1B1
:1007F000E1690B988847DBE7A1690B9888470746B2
:10080000A84201D1761CD3E7E1690B9888477F1C89
:1008100002D1B8F1000F6FD046E1002762693D4672
:100820003946019890472A2804D16269012101982C
:1008300090470125DFF88492626901210198904771
:10084000A0F130010A290AD24F45E5DC07EB870108
:1008500000EB4107303FDFD445F01005ECE7E90637
:1008600001D46FF000476C280AD04C2814D06828B7
:1008700015D06A280DD074281CD07A281AD01DE013
:1008800062690121019890476C2802D045F0040567
:1008900014E045F002050DE045F020050AE062692C
:1008A000012101989047682802D045F0080505E02D
:1008B00045F400656269012101989047C4E9015738
:1008C00065283DD019DC58287AD00CDC452837D073
:1008D00004DC252826D0412831D131E046282FD00C
:1008E00047282CD12CE05B2877D0612828D06328BA
:1008F0007CD0642823D15AE0D0E06F2848D008DCAF
:1009000066281DD067281BD0692821D06E2816D1F3
:1009100027E0702845D0732868D0752847D07828FC
:100920000DD14DE0A1690B988847054625283FF475
:1009300069AFE1690B9888476D1C3FF46AAFB3E07B
:1009400023466A466FF001000B99AFF300809EE0EA
:1009500045F040006060A80723464FF0000236D4FF
:100960003EE0E8077FF447AF2068011D2160006882
:10097000290501D506701BE7290701D5068017E771
:10098000A90703D5F117C0E9006111E706600FE779
:1009900045F040006060A80723464FF0080216D4D7
:1009A0001EE040F60E0125EA0100606016E045F009
:1009B00040006060A80723464FF00A0207D40FE00A
:1009C00045F040006060A80708D5234610226FF06C
:1009D00001000B99AFF3008059E007E02346102295
:1009E0006FF001000B99AFF3008050E04FF0000969
:1009F0004F464B46632802D05B2806D040E0E8060D
:100A000001D40120A06001273AE062690121019828
:100A100090475E2805D14FF0010962694946019867
:100A20009047216939B900210A46534643F82120ED
:100A3000491C0829FADBB0B3216969B9C11700EB79
:100A4000D16253110AEB830122F01F02821A0120A6
:100A50000B68904003430B60626901210198904745
:100A60005D28E8D1B9F1000F09D00020514651F8B6
:100A70002020D24341F82020401C0828F7DB02AB9D
:100A8000224600976FF001000B99FFF7A7FB0028A3
:100A90000CDA401C08D1BBF1000F05D04FF0FF303D
:100AA0000DB0BDE8F08FFFE74046F9E7E90701D157
:100AB00008F1010806444FF0000B79E6CCCCCC0CD1
:100AC00010B5141E73F1000408DA401C41F1000156
:100AD00092185B411A4301D120F0010010BD2DE9AD
:100AE000F04D92469B4611B1B1FA81F202E0B0FAA4
:100AF00080F220329046FFF727FE04460F4640EA78
:100B00000A0041EA0B0153465A46084313D01146E6
:100B100053EA010019D0C8F140025046FFF706FB26
:100B200005460E46504659464246FFF70DFE08431D
:100B300005D0012004E020463946BDE8F08D0020B4
:100B4000054346EAE0762C4337430A986305E40AF6
:100B5000A0EB08000022FD0A44EA47540A3002D5FF
:100B600000200146E9E7010510196941DDE9084562
:100B700000196941BDE8F04DA2E700007F2801D9C6
:100B8000002208E0064A02EB5002C007127800D1AA
:100B9000120902F00F020120904008407047000047
:100BA000204500082DE9F0472248007840073FD54E
:100BB00000244FF48068204E204D40F2FF3913E0AE
:100BC000A70209EB842239461DA003F077FC4246B8
:100BD0003946284802F0A6FE06EB84204246254905
:100BE00002F08EFC641CA4B2A86EB4EB902FE7D385
:100BF0000246800511D0A10211A003F05FFCA86E8F
:100C0000810AC0F3090289021A4802F08BFE06EB42
:100C100084204246174902F073FC17A003F04EFCF3
:100C2000002070220549E86600F046FB02F046FF0E
:100C3000BDE8F08700000020005000081C040020E0
:100C4000B6C1C8A125647E2564D7D6BDDAB9CCBCAF
:100C5000FEA3ACD0B4C8EB466C617368A3ACC7EB21
:100C6000C4CDD0C4B5C8B4FD2E2E2E202E2E2E0DF0
:100C70000A000000180000204F5441B8FCD0C2CD3B
:100C8000EAB1CFA3ACD6D8C6F40D0A002DE9FC41D9
:100C9000184E19A1A6F12105A5F12103CDE90056B1
:100CA000A3F10D041F46621CFFF77CFA042802D052
:100CB0000520BDE8FC81601CFFF76CFA0B2801D011
:100CC0000120F6E73846FFF765FA202801D902200F
:100CD000EFE72846FFF75EFA202801D00320E8E777
:100CE0003046FFF757FA172801D00420E1E700202B
:100CF000DFE700006B0400202F255B5E2F5D2F25B2
:100D00005B5E2F5D2F255B5E2F5D2F255B5E2F5D6C
:100D10002F00000010B5142000F08AF828B102F06E
:100D200085FCBDE8104000F013BA204C2049E06E6D
:100D3000884218D11FA003F0C1FB04F14F0120A08D
:100D400003F0BCFB22A0A16E03F0B8FB244A6C2187
:100D5000142002F09DFB002804D12248016841F0D4
:100D60000401016010BD01211F4801F035FAA0F512
:100D70003051C23904D0BDE810401C4802F08AB995
:100D80001BA003F09BFB00220121174801F02CFA65
:100D90004FF4807000F0F0FE1B48016841F0040140
:100DA0000160BDE8104000F0F5BE00001C0400200A
:100DB0003CC3A55A4F5441C9FDBCB60D0A00000002
:100DC000B9CCBCFEB0E6B1BEA3BA25730D0A0000D3
:100DD000B9CCBCFEB4F3D0A1A3BA25640D0A0000BF
:100DE0008410002000000020201100200050000886
:100DF000BDF8C8EBB5CDB9A6BAC42CB0B4BCFCBB29
:100E0000BDD0D10D0A0000000070004010B50548AB
:100E100001F027FF044801F0C8FDBDE81040034879
:100E200001F0EAB9F0040020881000202011002011
:100E300070B5044608A003F041FB104D05E028788A
:100E4000772807D0642000F009FC2046641EE4B235
:100E5000F5D270BD012070BD0D0A32C3EBC4DAA318
:100E6000ACCAE4C8EBA1AE77A1AFBDF8C8EB626F26
:100E70006F746C6F616465720D0A00007406002067
:100E80002DE9F0416C4C6D4DDFF8B48122686AB1F8
:100E9000D3077CD0434641F2111297101B684FF4E0
:100EA0008066852949D0012977D079E0012935D19B
:100EB0000078644E31280AD0322811D033282FD040
:100EC00034282BD100F0CEF902F070F9B0E05EA02A
:100ED00003F0F4FA32466C21142002F0D9FAA7E0AC
:100EE0005EA003F0EBFAD8F8001000274F62D8F8A4
:100EF0000000B91E0161524801F0AEFD32466C217E
:100F0000142002F0C5FA0028E0D15BA003F0D6FA65
:100F1000206840F001002060A5F80274BDE8F0816F
:100F2000022020605AA003F0C9FA60A003F0C6FABC
:100F300064A003F0C3FA67A066E0017801292FD10D
:100F4000196A114206D1196A394203D1196821F090
:100F50000101196095F80214802201F0070105EBE8
:100F6000C113C11C1846FFF7F1F8B5F80204401C84
:100F700080B2A5F80204410707D16349C00801EB1C
:100F8000802032462D4902F0BBFA062001E035E010
:100F900003E0BDE8F04103F081BA0178042918D0DC
:100FA00000781828BAD1186A104206D1186A384257
:100FB00003D1186820F001001860042003F06EFAD5
:100FC000206820F0010020604FF4FA7000F046FB2A
:100FD0002EE0062003F062FAB5F80204410707D0BC
:100FE0004A49C00801EB80203246144902F088FAD1
:100FF000206820F00100206002F060FD91078DD58F
:10100000FFF744FE20B142A0BDE8F04103F056BA1C
:1010100047A003F053FA4D49DD20702208700020EC
:1010200000F04AF902F0C2F8206820F002002060C7
:10103000BDE8F04100F08CB800000020180000204E
:101040008810002084100020D7BCB1B8B2C1B3FD15
:1010500041C7F8466C6173680D0A0000D7BCB1B88F
:10106000CDA8B9FD586D6F64656DCFC2D4D841C7A6
:10107000F8B3CCD0F20D0A00C7EBB7A2CBCD586DB8
:101080006F64656D2062696E20B9CCBCFE0D0A00EC
:10109000C8FDD4AAD7E9D6A4CAE9D0C5CFA2D6D86C
:1010A000D0C2C9E8D6C30D0A00000000CAE4C8EBEC
:1010B000C8FDD4AAD7E9D6A4CAE9D0C5CFA20D0AE3
:1010C00000000000B8F1CABDC8E7CFC2A3BA0D0A3C
:1010D000000000002F50726F647563744B65792FA8
:1010E0004465766963654E616D652F446576696315
:1010F000655365637265742FB9CCBCFEB0E6B1BEB2
:10110000BAC52F0D0A000000004C0008005000086E
:10111000D6A4CAE9D0C5CFA2CAE4C8EBB4EDCEF3D9
:10112000A3ACD6D8D0C2CAE4C8EB0D0A00000000B8
:10113000B0A2C0EFD4C6D6A4CAE9D0C5CFA2C9E830
:10114000D6C3CDEAB1CF0D0A000000001C04002078
:1011500010B507A003F0B2F909A003F0AFF90EA093
:1011600003F0ACF9BDE8104013A003F0A7B90000EC
:101170005B315D41C7F8B2C1B3FD0D0A000000004C
:101180005B325D41C7F8CFC2D4D8A3A8586D6F6455
:10119000656DA3A90D0A00005B335DC9E8D6C3B035
:1011A000A2C0EFD4C6C8FDD4AAD7E9D6A4CAE9D054
:1011B000C5CFA20D0A0000005B345DB2E9D1AFB02B
:1011C000A2C0EFD4C6C8FDD4AAD7E9D6A4CAE9D034
:1011D000C5CFA20D0A0D0A00014800F02FB900008A
:1011E000300500200148C06C00F028B9C81000206C
:1011F0000148806C00F022B9C810002030B590F88A
:1012000040500124AC40C56B6C6004686360436867
:10121000102B036803D099600068C26030BD9A60EB
:101220000068C16030BD000030B50C4A0021136871
:10123000DC6A4FF47A726043B0FBF2F55A6A586A7E
:101240009042FCD002D9A0EB020202E0A4EB020221
:10125000024411440246A942F1D330BD34110020AA
:1012600001F058BF10B570210848FEF788FF7022C2
:1012700006490020FFF7F4FF04480078DD2804D079
:10128000BDE8104002A003F019B910BD1C040020F5
:10129000D6A4CAE9D0C5CFA2CEDED0A720C7EBD452
:1012A000DA426F6F744C6F61646572D6D0D6D8D055
:1012B000C2C9E8D6C30D0A002DE9F041174606461B
:1012C0000D46002407E0295D304601F053FF761CEF
:1012D000641CF6B2A4B2BC42F5D3BDE8F0810000B4
:1012E00006490020C8610648016941F00401016116
:1012F000016941F040010161704700007811002050
:1013000000200240064A0021D16106490A6942F0E4
:1013100002020A614861086940F0400008617047B4
:101320007811002000200240044B0022DA61044AB8
:10133000136943F0010313610180704778110020A5
:101340000020024014480022C168CB06134904D58E
:10135000CA6942F00202CA611022C3685B0705D560
:10136000CB6943F00103CB6142F00402C369DB07A0
:1013700007D0CB6943F00403CB61C16921F00101BF
:10138000C161A2F58071013901D0C2607047C169A5
:1013900021F00101C1617047002002407811002056
:1013A00070B5054600F018FB0646114C09E0681CB4
:1013B00007D025B100F010FB801BA84201D9032003
:1013C00070BDE068C007F2D1E068800601D520203A
:1013D000E060E068C00605D4E069C00702D1E068BB
:1013E000400703D5FFF7AEFF012070BD002070BDA0
:1013F0000020024010B590F821100022022905D0EB
:101400000421816380F82020012010BD01680B6851
:1014100023F00E030B6001680B6823F001030B60DF
:1014200090F84030C46B012101FA03F3636080F847
:10143000211080F82020104610BD00002DE9F05F3B
:10144000C16B0C6801680B68D0F840C0042202FA36
:101450000CF2494DDFF824A1494E4A4FDFF828B17C
:10146000DFF828E122422CD05A072AD50A689206D2
:1014700003D40A6822F004020A600168A94201D17B
:10148000042219E0514501D1402215E0B14202D1B8
:101490004FF4806210E0B94202D14FF480420BE079
:1014A000594502D14FF4802206E0714502D14FF434
:1014B000800201E04FF080622F4908394A60C16A1A
:1014C0003BE04FF0020808FA0CF818EA040F4FF05E
:1014D00000094FF0010235D05FEA837832D50B68FE
:1014E0009B0605D40B6823F00A030B6080F82120CB
:1014F0000168A94201D1022219E0514501D12022FF
:1015000015E0B14202D14FF4007210E0B94202D1AD
:101510004FF400520BE0594502D14FF4003206E07F
:10152000714502D14FF4001201E04FF000721249F0
:1015300008394A6080F82090816A00291AD0BDE8F5
:10154000F05F0847082505FA0CF5254212D01B0765
:1015500010D50B6823F00E030B6090F84010C36B9E
:1015600002FA01F15960826380F8212080F820900E
:10157000016BE2E7BDE8F09F080002401C0002405A
:101580003000024044000240580002406C0002401B
:1015900030B528B308C8134914221944B1FBF2F13D
:1015A0008900C16310498163022141771A6843F6BB
:1015B000F0718A43D0E900142143D0E902452C435D
:1015C0002143046921434469214384692143114330
:1015D000196000214163012242770177084630BD3E
:1015E000012030BDF8FFFDBF0000024070B5044689
:1015F00090F82000002501280CD0012084F820005C
:1016000094F821600020012E06D084F820000225E5
:10161000284670BD022070BD022684F82160A063B8
:101620002068066826F0010606602046FFF7E6FD02
:10163000E06A00282068016802D041F00E0106E04F
:1016400021F0040101602068016841F00A01016095
:101650002068016841F001010160D9E770B50446D6
:1016600000F0BAF90546601C02D004480078044432
:1016700000F0B2F9401BA042FAD370BD0800002070
:101680002DE9F047054626480F460126017E01292F
:101690000FD00121814601762868DFF888804CF25E
:1016A0005034022808D0A2462046FFF779FEA8B1A0
:1016B00031E00220BDE8F0872046FFF771FE08BB4D
:1016C0000120FFF70DFE2046FFF76AFED8F8101044
:1016D000064621F00401C8F810101CE04FF0FF305E
:1016E0003860AC6811E02046FFF70CFE5046FFF76B
:1016F00057FED8F81010060021F00201C8F81010AB
:1017000001D03C6007E004F58064D5E9020100EBFC
:101710008120A042E7D8002189F818103046C9E797
:1017200078110020002002400348016941F0800147
:101730000161002070470000002002402DE9F05FA9
:1017400007461C4888460024017E15461E4601298E
:1017500009D00121814601764CF2503A5046FFF7FC
:101760001FFE18B122E00220BDE8F09F012F02D039
:10177000022F00D00427D346DFF83CA022012846E0
:101780003146FEF7D3FC81B208EB4400FFF7CCFDF5
:101790005846FFF705FEDAF8102022F00102CAF8D9
:1017A000102018B9641CE4B2BC42E7D3002289F8C7
:1017B0001820D9E7781100200020024006490020B7
:1017C0000A69120607D5054A4A60054A4A6009694E
:1017D000090600D50120704700200240230167451B
:1017E000AB89EFCD2DE9F84FDFF8B891002409F16E
:1017F000040A0AF1040B23460F270BF1040EC9E07B
:101800000125A5402A40AA427DD1674ED1F804C0E7
:10181000ACEB0608B44532D014DCBCF1030F3AD06F
:1018200009DCBCF1000F2AD0BCF1010F1CD0BCF1C7
:10183000020F31D11DE0BCF1110F17D0BCF1120F16
:101840002AD119E0B8F5881F19D006DCB8F5803F19
:1018500015D0B8F5801F1FD111E0B8F5001F0ED0CC
:10186000B8F5041F18D10AE0CB6815E0CB681B1D42
:1018700012E0CB6808330FE0CB680C330CE08B68C8
:101880002BB1012B4FF0080303D0456104E0042382
:1018900002E0056100E00023FF2A01D8064601E0CE
:1018A00000F104064FEA840501D9A5F12005D6F818
:1018B000008007FA05FC28EA0C0803FA05F548EA57
:1018C0000508C6F800804D68ED0062D5374DAE6959
:1018D00046F00106AE61AD6924F0030605F001058E
:1018E0000095334D06EB050CDCF80850A607360FC3
:1018F00007FA06F825EA0805DFF8B880404503D165
:101900004FF0000817E044E0DFF8AC80404502D11A
:101910004FF001080FE0DFF8A480404502D14FF0FE
:10192000020808E0DFF89880404502D14FF0030834
:1019300001E04FF0040808FA06F848EA0508CCF878
:1019400008804D68D9F80060ED034D4601D5164377
:1019500000E096432E604D68DAF80060AD0355460E
:1019600001D5164300E096432E604D68DBF8006019
:10197000ED025D4601D5164300E096432E604D68AA
:10198000DEF80060AD02754601D5164300E09643CF
:101990002E60641C0D682A46E5407FF431AFBDE837
:1019A000F88F0000000401400000111000100240F8
:1019B0000000014000080140000C014000100140FF
:1019C000001401408068084000D0012070470AB12F
:1019D000016170470904FBE7014880687047000017
:1019E0000800002002488168027811448160704735
:1019F00008000020074810B5016841F0100101609F
:101A0000032000F0A7F80F2000F006F800F050F8CF
:101A1000002010BD0020024030B50546204887B0A8
:101A2000C16941F00101C161C06906A900F001006E
:101A3000009001A800F0CAF90498B8B100F0E6F9E6
:101A4000400018494FF08042B0FBF1F11648491EA2
:101A50000260416040F2E7320021C0E90321816069
:101A6000816100F0BEFF040003D015E000F0CEF964
:101A7000E7E70D4800F0F0FF04000DD11C2000F056
:101A80003BF8102D07D2002229461C2000F042F816
:101A90000648056000E0012407B0204630BD000084
:101AA0000010024040420F00341100200C000020C2
:101AB0000F4808B5816941F001018161816901F038
:101AC00001010091C16941F08051C161C0690022EA
:101AD00000F0805000900F21901E00F01BF8054888
:101AE000416821F0E06141F00071416008BD0000F3
:101AF0000010024000000140002809DB00F01F0236
:101B0000012191404009800000F1E020C0F800115F
:101B100070470000F0B40E4B1B680C46C3F3022361
:101B2000C3F10705042D00D90425191D072901D289
:101B3000002300E0DB1E012606FA05F1491E2140C4
:101B400099409E40761E16403143F0BC01F0A6BF7E
:101B50000CED00E0064900F0070208684FF6FF03AD
:101B6000184040EA0220034A104308607047000012
:101B70000CED00E00000FA0590FAA0F0044AB0FA7B
:101B800080F002EB80000121C0F880107047000057
:101B900000000E420548016841F00201016004485E
:101BA000016841F00401016030BF704700700040DF
:101BB00010ED00E02DE9F84305460078354CC007EC
:101BC00054D0E0690026C00008D4E06940F080509D
:101BD000E061E069012600F0805000902E48016825
:101BE000C90512D40168804641F480710160FFF795
:101BF000F3FE074605E000BFFFF7EEFEC01B6428BA
:101C000023D8D8F80000C005F6D5206A10F440703B
:101C100021D0A98801F4407181421CD0206A1F495B
:101C2000012220F440700A6000220A602062C0078E
:101C300011D0FFF7D1FE074641F2883808E000BF17
:101C4000FFF7CAFEC11B414502D90320BDE8F88356
:101C5000206A8007F4D5206A696820F44070084340
:101C600020621EB1E06920F08050E0612878800792
:101C700005D56068A96820F4404008436060287872
:101C8000C00605D56068E96820F4800008436060FC
:101C90000020DBE700100240007000404004424298
:101CA0002DE9F0470F46050061D0434E306800F043
:101CB0000700B84209D2306820F00700384330608E
:101CC000306800F00700B84251D128683B4C8107CA
:101CD00012D5400703D5606840F4E0606060287862
:101CE000000703D5606840F4605060606068A968D0
:101CF00020F0F000084360602878C00728D06868AA
:101D0000012810D02168022810D0890700292EDA76
:101D1000616821F0030101436160FFF75DFE8046C9
:101D200041F288390DE021688903EFE78901EDE789
:101D3000FFF752FEA0EB0801494502D90320BDE898
:101D4000F0876068696800F00C00B0EB810FEFD19C
:101D5000306800F00700B8420BD9306820F0070067
:101D600038433060306800F00700B84201D00120ED
:101D7000E5E72878400705D56068E96820F4E06069
:101D8000084360602878000706D56068296920F458
:101D9000605040EAC100606000F058F86168084A8D
:101DA000C1F30311515CC840064908600648006849
:101DB000FFF732FE0020C2E7002002400010024080
:101DC00008450008140000200C0000200F220260CB
:101DD0000C4A536803F003034360536803F0F003B5
:101DE0008360536803F4E063C36052684FF4E063B8
:101DF00003EAD20202610448006800F007000860AC
:101E000070470000001002400020024004480549CD
:101E100000684968044AC1F30221515CC840704718
:101E2000140000200010024018450008044805492D
:101E300000684968044AC1F3C221515CC840704738
:101E400014000020001002401845000812A185B0BF
:101E50000FC98DE80F0014A0144A0068049051685F
:101E6000134801F00C03042B10D0082B0ED1C1F342
:101E70008343C9031DF803000AD5516804AAC1F3BE
:101E80004041515C0A4A5043B0FBF1F005B0704745
:101E900008494843FAE70000020304050607080959
:101EA0000A0B0C0D0E0F1010010200000010024072
:101EB00000127A0000093D002DE9F84F040070D0AF
:101EC0002078C04DC00749D06868C0F38100012860
:101ED00007D06868C0F38100022809D16868C00390
:101EE00006D52868800339D560680028E7D035E03A
:101EF0006068B0F5803F0BD010B1B0F5A02F11D0C5
:101F0000286820F480302860286820F4802002E0CF
:101F1000286840F480302860606890B1FFF75CFD6D
:101F200006460AE0286840F480202860F0E700BFF9
:101F3000FFF752FD801B642873D828688003F7D50B
:101F40000CE0FFF749FD064605E000BFFFF744FD42
:101F5000801B6428F0D828688003F7D420789A4E34
:101F600080074FF001094FF0000839D5686810F07C
:101F70000C0F07D06868C0F38100022809D1686897
:101F8000C00306D42868800714D52069012808D129
:101F900010E02069B0B1C6F80090FFF71DFD0746BC
:101FA00005E00AE1FFF718FDC01B0228C4D8286825
:101FB0008007F7D52868616920F0F80040EAC10081
:101FC00028600DE0C6F80080FFF706FD074604E034
:101FD000FFF702FDC01B022823D828688007F7D42A
:101FE000207800072CD57948A169D9B1C0F80090B4
:101FF000FFF7F2FC074604E0FFF7EEFCC01B0228E7
:102000000FD8686A8007F7D571484FF4FA51006815
:10201000B0FBF1F0009000BF0098411E0091FAD291
:102020000EE080E0C0F80080FFF7D6FC074604E031
:10203000FFF7D2FCC01B022875D8686A8007F7D466
:102040002078400760D5E8690027C00008D4E86917
:1020500040F08050E861E869012700F0805000906E
:102060005C480168C90513D40168834641F4807156
:102070000160FFF7B1FC824606E000BFFFF7ACFC51
:10208000A0EB0A0064284ED8DBF80000C005F5D5A7
:10209000E06801280AD008B1052813D0286A20F08A
:1020A00001002862286A20F0040002E0286A40F05B
:1020B00001002862E06841F2883B98B1FFF78CFC90
:1020C00082460BE0286A40F004002862EEE700BF79
:1020D000FFF782FCA0EB0A0159455AD8286A80070D
:1020E000F6D50CE0FFF778FC824605E0FFF774FCBC
:1020F000A0EB0A0159454CD8286A8007F6D41FB1D5
:10210000E86920F08050E861E06988B36968C1F34C
:102110008101022944D00228C6F8608004D0FFF76C
:102120005BFC044638E034E0FFF756FC074604E069
:10213000FFF752FCC01B02282BD828688001F7D477
:10214000206AB0F5803F05D16868A16820F40030AE
:1021500008436860D4E908010843696821F47411F0
:1021600008436860C6F86090FFF736FC044606E056
:1021700025E000BFFFF730FC001B022809D82868C3
:102180008001F7D51BE000BFFFF726FC001B0228EB
:1021900002D90320BDE8F88F28688001F4D40EE04E
:1021A0000128F7D06868226A00F48031914204D196
:1021B000616A00F47010884201D00120EAE7002033
:1021C000E8E7000000100240000042428004424262
:1021D0001400002000700040024850F8210080B236
:1021E00070470000006C0040024800EB810091B293
:1021F00001607047006C004070B5040008D00220F8
:102200006074204601F01AF804260025A0B901E008
:10221000012070BD2068C5612068856121684FF488
:102220000040C860206885602068056020684560BF
:10223000204601F01DF810B166742574E8E72046C9
:1022400000F024F82068416821F008014160204630
:1022500000F004F865742574002070BD006808491A
:1022600088420BD10749002008600748C16921F066
:102270000061C161C16921F08051C16170470000F6
:10228000002800403C0442420010024070B50400A7
:102290000AD02068416821F008014160FFF79CFBEB
:1022A00005464FF47A7608E0012070BDFFF794FBF5
:1022B000401BB04201D9032070BD20684068000770
:1022C000F4D5002070BD70B5040004D094F851001E
:1022D000002510B106E0012070BD84F85050204662
:1022E00000F036F8022084F851002068016821F0DF
:1022F00040010160D4E901010843D4E9031211430C
:10230000084361690843218B01F400710843E169C6
:102310000843216A0843A16A084321680860A0694C
:10232000042101EA104021684860A06AB0F5005F0E
:1023300002D12168E06A08612068C16921F4006166
:10234000C1616565012084F85100002070BD000066
:1023500000B50068114985B088421CD110488169D8
:1023600041F004018161816901F0040104918169F6
:1023700041F4805181618069694600F48050049085
:10238000E0200090022001900120029003200390A1
:102390000448FFF727FA05B000BD000000300140F7
:1023A00000100240000801402DE9F84F0446406843
:1023B00000259946174688464FF0040BB0F5827FFA
:1023C00001D1A06888B194F85000012818D00120EC
:1023D00084F85000FFF700FB064694F851004FF0D8
:1023E000000A01280ED00225D8E084F851B0134627
:1023F0000A462046CDF8009000F09BF9BDE8F88F22
:102400000220FBE7B8F1000F7ED0002FFCD084F84B
:1024100051B0C4F854A0C4F83880A787E787C4F83F
:1024200030A0A4F834A0A4F836A0C4F840A0C4F8A2
:1024300044A0A06A4FF40057B8420CD1206801684C
:1024400021F4005101602068016841F400510160ED
:10245000E08F401EE087A068B0F5004F04D12068EF
:10246000016821F48041016020680168490603D4B5
:10247000016841F040010160E068D0B137E02068B8
:102480008168C90709D0007BA16B0870A06B401C54
:10249000A063E08F401EE0870BE0FFF79DFA811BF1
:1024A000494503D3B9F1FF3F03D03DE0B9F1000F37
:1024B0003AD0E08F0028E2D11CE020688168C9078B
:1024C00009D0C068A16B0880A06B801CA063E08F5E
:1024D000401EE0870BE0FFF77FFA811B494503D3DD
:1024E000B9F1FF3F03D01FE0B9F1000F1CD0E08F1E
:1024F0000028E2D1A06AB84233D12068016841F4D3
:1025000080510160206800E047E00168C90403D5FC
:10251000016821F48051016001224B46114620469A
:10252000009600F06BFF08B1032537E0E068B0F5D6
:10253000006F20680FD0007BA16B087001224B4612
:1025400011462046009600F059FF40B1606D40F002
:1025500002006065E8E7C068A16B0880EEE72068CC
:10256000C06832464946204600F00AFF08B12020E4
:10257000606520688168C943C9060CD4616D41F06B
:1025800002016165016821F4005101602068016861
:1025900041F400510160606D00B10125012084F813
:1025A000510084F850A0284628E72DE9F84F04464A
:1025B00090F8500000271D461646884601280DD089
:1025C0004FF0010B84F850B0FFF706FA814694F8FB
:1025D0005100BA46012804D00227A4E00220BDE839
:1025E000F88FB8F1000F74D0002E72D0032084F859
:1025F0005100C4F854A0C4F83080A686E686C4F81A
:1026000038A0A4F83CA0A4F83EA0C4F844A0C4F8A4
:1026100040A0A068B0F5004F04D12068016841F4E3
:1026200080410160A06A4FF40058404509D12068FC
:10263000016821F4005101602068016841F40051F3
:10264000016020680168490603D4016841F0400137
:102650000160E068B0F5006F606803D030B3012E10
:1026600024D041E008B1012E1CD1206B21680088E4
:10267000C86006E020688168890709D5216B098850
:10268000C160206B801C2063E08E401EE08609E064
:10269000FFF7A2F9A0EB0900A84202D3681C01D001
:1026A00038E0FDB1E08E0028E4D120E0206B216805
:1026B0000078087306E02068816889070AD5216BD5
:1026C00009780173206B401C2063E08E401EE08679
:1026D0000AE027E0FFF780F9A0EB0900A84202D347
:1026E000681C01D016E0ADB1E08E0028E3D1A06AED
:1026F000404504D12068016841F4805101604A4698
:102700002946204600F06AFE08B120206065A068D6
:1027100010B105E0032706E02068C16880680090DA
:10272000606D00B1012784F851B084F850A038469C
:1027300055E72DE9F84F044690F8500000260A9F0F
:102740001D4692468B464FF0010901280ED001200C
:1027500084F85000FFF740F9804694F85100616812
:1027600001280CD0B1F5827F07D102E00220BDE83C
:10277000F88FA16809B9042801D002260BE1BBF14A
:10278000000F37D0BAF1000F34D095B394F8510050
:10279000042802D0052084F8510000206065C4F8A8
:1027A00038A0E587A587C4F830B0E586A586206403
:1027B0006064A06A4FF4005A504509D1206801684E
:1027C00021F4005101602068016841F4005101606A
:1027D00020680168490603D4016841F040010160A6
:1027E000E068B0F5006F606806D0F0B3012D51D0FD
:1027F00094E0FFE70126CEE008B1012D43D1206B24
:1028000021680088C860206B801C2063E08E401E19
:10281000E08638E020688168890719D5E18EB9B172
:10282000B9F1010F14D1216B0988C160206B801CA4
:102830002063E08E401EE086E08E4FF0000938B93C
:10284000A06A504504D12068016841F480510160BC
:1028500020688168C9070ED0E18F61B1C068A16BA3
:102860000880A06B801CA06300E013E0E08F401E96
:10287000E0874FF00109FFF7AFF8A0EB0800B8427E
:1028800001D3781C60D1E08E0028C3D1E08F0028EE
:10289000C0D149E0206B216800780873206B401C90
:1028A0002063E08E401EE08638E02068816889075A
:1028B00019D5E18EB9B1B9F1010F14D1216B0978A5
:1028C0000173206B401C2063E08E401EE086E08E8A
:1028D0004FF0000938B9A06A504504D1206801685A
:1028E00041F48051016020688168C9070CD0E18FF4
:1028F00051B1C068A16B0870A06B401CA063E08F51
:10290000401EE0874FF00109FFF766F8A0EB0800D2
:10291000B84202D3781C01D016E0AFB1E08E002897
:10292000C3D1E08F0028C0D1A06A504510D1012248
:102930003B4611462046CDF8008000F05FFD28B1EF
:10294000606D40F002006065032624E02068C068E6
:1029500020688168C943C9060DD4616D41F0020148
:102960006165016821F4005101602068016841F44B
:1029700000510160012642463946204600F02EFDF6
:1029800018B101262020606505E0A06818B920680C
:10299000C16880680090012084F85100002084F80C
:1029A00050003046E3E67047704710B504460220F9
:1029B00084F83D002068016A41F21112114207D1EA
:1029C000016A9210114203D1016821F001010160F6
:1029D000204600F021F8002084F83D0084F83C00F7
:1029E00010BD10B5040003D094F83D0010B107E00D
:1029F000012010BD002084F83C00204600F00EF8B5
:102A0000022084F83D00211D206800F0D9FD01203E
:102A100084F83D00002010BD7047000008B5006834
:102A20000B49884212D10B48816941F400618161F0
:102A30008069032200F40060009001211920FFF753
:102A400069F8BDE808401920FFF756B808BD000036
:102A5000002C0140001002400168CA6842F00102E7
:102A6000CA600068816801F00701062903D0016887
:102A700041F00101016000207047704770B50446C5
:102A8000006801694FF00005C943890715D4C16882
:102A9000C943890711D4E91E01610120207720680C
:102AA00080698007204602D0FFF7E7FF04E000F0CE
:102AB00098F8204600F096F8257720680169C94308
:102AC000490717D4C168C943490713D46FF00401FB
:102AD0000161022020772068806910F4407F204641
:102AE00002D0FFF7CAFF04E000F07BF8204600F0B8
:102AF00079F8257720680169C943090716D4C168A8
:102B0000C943090712D46FF008010161042020773E
:102B10002068C0698007204602D0FFF7AEFF04E0BE
:102B200000F05FF8204600F05DF825772068016925
:102B3000C943C90617D4C168C943C90613D46FF085
:102B400010010161082020772068C06910F4407FDF
:102B5000204602D0FFF791FF04E000F042F8204643
:102B600000F040F8257720680169C943C90708D1FA
:102B7000C168C943C90704D1891E0161204600F01C
:102B800033F820680169C943090609D4C168C943FB
:102B9000090605D46FF0800101612046FFF703FFAD
:102BA00020680169C943490609D4C168C943490677
:102BB00005D46FF040010161204600F025F820683F
:102BC0000169C94389060BD4C168C943890607D482
:102BD0006FF0200101612046BDE87040FFF7E4BEC0
:102BE00070BD70477047000000680649884202D1F6
:102BF000432001F053BCB0F1804F01D1FEF7F2BE8B
:102C000070470000002C0140704710B50446006872
:102C1000416994F83920C1F3C011212A0BD151B177
:102C2000416921F080014161206B08B1FEF7E2FBB0
:102C3000204600F099FD2068416994F83A20C1F3DC
:102C40008011222A0BD151B1416921F0400141612B
:102C5000606B08B1FEF7CEFB204600F077FD002048
:102C600010BD10B5040013D0242084F8390020686A
:102C7000C16821F40051C160204600F03DF80020F9
:102C8000E06384F8390084F83A0084F8380010BD15
:102C9000012010BD704770B5040004D094F83900CD
:102CA000002510B106E0012070BD84F838502046A0
:102CB00000F024F8242084F839002068C16821F449
:102CC0000051C160204600F059FD2068016921F4DF
:102CD000904101612068416921F02A014161206829
:102CE000C16841F40051C160E563202084F83900D7
:102CF00084F83A00002070BD7047000070B50646A9
:102D000000682B4986B0884250D12A49886940F032
:102D100004008861886900F004000490886940F428
:102D200080408861886900F480400490486940F0E0
:102D3000010048614869204C00F0010004904815EA
:102D40000090022001900120029003200390694628
:102D50002046FEF747FD20150025CDE90005694610
:102D60002046FEF73FFD032200212520FEF7D2FE7C
:102D70002520FEF7C1FE124C1048E4E92905802009
:102D8000C4E90250256180016561C4E906500C4820
:102D9000A4300546FEF7FCFB7563002211460F20A8
:102DA0006662FEF7B7FE0F20FEF7A6FE06B070BD06
:102DB0000038014000100240000801405800024065
:102DC0008C040020F8B5044690F83A0020283CD145
:102DD000C1B3BAB394F83800012836D0012084F882
:102DE0003800A162A2850025E563222084F83A001C
:102DF000636B17489862636B1648D862636B16481A
:102E00001863606B134645630846666B216802468B
:102E10003046091DFEF7EAFB206801684168009111
:102E200084F83850C16841F48071C16020684169FC
:102E300041F0010141612068416941F04001416177
:102E40000020F8BDFFE70120FBE70220F9E70000C2
:102E50000737000843370008BD3600087047704741
:102E60007047000030B5194885B0816941F008010C
:102E70008161816901F008010491816941F00801D3
:102E800081618069124D00F008000490802000905C
:102E9000112003240190694603942846FEF7A2FC02
:102EA0004020009001200190694603942846FEF7D7
:102EB00099FC012240212846FEF789FD012280214C
:102EC0002846FEF784FD05B030BD0000001002402A
:102ED000000C01402DE9F0412B4D0746002422460D
:102EE00040212846FEF773FD1420FEF79DF90026C9
:102EF000012240212846FEF76AFD1420FEF794F9CE
:102F00006006040E80212846FEF75CFD08B1641CB3
:102F1000E4B21420FEF788F9002240212846FEF78B
:102F200056FD1420FEF780F9761CF6B2082EDFD38A
:102F3000CFB1002280212846FEF749FD0122402121
:102F40002846FEF744FD0220FEF76EF900224021DC
:102F50002846FEF73CFD012280212846FEF737FD7A
:102F60002046BDE8F081012280212846FEF72FFD92
:102F7000012240212846FEF72AFD0220FEF754F9DF
:102F800000224021E9E70000000C014070B5124E1C
:102F90000546002240213046FEF719FD0024EA09CB
:102FA00080213046FEF713FD6806050E0220FEF76D
:102FB0003BF9012240213046FEF709FD0220FEF7D1
:102FC00033F9002240213046FEF701FD641CE4B2D3
:102FD000082CE4D370BD0000000C014010B50A4C71
:102FE000012280212046FEF7F2FC012240212046EA
:102FF000FEF7EDFC0420FEF717F920460022BDE89D
:1030000010408021FEF7E3BC000C014010B50A4CD3
:10301000002280212046FEF7DAFC012240212046D2
:10302000FEF7D5FC0420FEF7FFF820460122BDE89C
:1030300010408021FEF7CBBC000C014070B5144D50
:103040000024012280212846FEF7C1FC01224021F4
:103050002846FEF7BCFC0AE0641CE4B2FA2C03D953
:10306000FFF7D4FF012070BD0220FEF7DDF88021BC
:103070002846FEF7A7FC0028EED100224021284672
:10308000FEF7A5FC1420FEF7CFF8002070BD00006D
:10309000000C014010B50168B1F1005F12D3016866
:1030A0000D4A91420ED841680C4C21600068FDF732
:1030B00027F80BA001F002FAFDF7A8FE2068804770
:1030C000002010BD0BA001F0F9F900F0AFFAFEF7F7
:1030D0003FF8012010BD0000FF4F00200400002039
:1030E000D7BCB1B8CCF8D7AAB5BD41C7F82E2E2EA3
:1030F0000D0A0000CCF8D7AAB5BD41C7F8CAA7B0E1
:10310000DCA3ACBDF8C8EB426F6F744C6F616465B3
:10311000720D0A002DE9F04115460E460446FFF7F0
:103120005DFFA020FFF732FFFFF788FF2046FFF783
:103130002DFFFFF783FFFFF751FFA120FFF726FFC9
:10314000FFF77CFF00246F1E05E00120FFF7C2FEA1
:103150003055641CA4B2BC42F7DB0020FFF7BAFE76
:10316000711901F8010CFFF751FFBDE8F04105208E
:10317000FEF774BA70B50D460446FFF72FFFA02086
:10318000FFF704FFFFF75AFF2046FFF7FFFEFFF7A8
:1031900055FF2846FFF7FAFEFFF750FFFFF736FF0F
:1031A000BDE870400520FEF759BA704710B50D48CC
:1031B00001F084F90C490DA001F080F90A4910A032
:1031C0000C3101F07BF9084912A02D3101F076F99C
:1031D000054915A04E3101F071F9BDE810401648BF
:1031E00001F06CB9AC4500081D04002050726F64FA
:1031F0007563744B6579A3BA25730D0A000000004E
:103200004465766963654E616D65A3BA25730D0AE1
:1032100000000000446576696365536563726574F8
:10322000A3BA25730D0A0000B9CCBCFEB0E6B1BE4E
:10323000A3BA25730D0A00006045000870B5044666
:10324000FEF7CAFB05464FF47A7606E0FEF7C4FBAC
:10325000401BB04201D9032070BD20684068800641
:10326000F4D52068416841F010014160002070BD34
:1032700070B504460068416821F010014160FEF716
:10328000ABFB05464FF47A7607E000BFFEF7A4FBE0
:10329000401BB04201D9032070BD20684068800601
:1032A000F4D5002070BD70B594B028216846FCF7B5
:1032B00066FF14210AA8FCF762FF002401250F9481
:1032C00010942804CDE90050119412940226CDE9FF
:1032D00007604FF4E01009906846CDE90245FEF71B
:1032E000EBFD98B90F20CDE90A06A802CDE90C4004
:1032F00002210AA80E94FEF7D3FC38B92802CDE9C2
:103300000F500FA8FEF756FC002801D000F0E8FB94
:1033100014B070BD10B5114C0F484FF4007120600F
:103320004FF4827060600020A060E0602061C4E91A
:103330000501E06120626062A0620720E062204631
:10334000FEF7C1FF2068016841F040010160BDE85F
:103350001040FF2000F004B800300140C8100020E9
:1033600001B582B04FF47A700090012301AA02A93E
:103370000248FFF7DEF99DF804000EBDC8100020DA
:10338000F8B5044640684FF48273984217D1A0689C
:103390004FF48065B0F5004F01D0A8420FD12068EE
:1033A000066826F0400606606068984207D1A0686B
:1033B000A84204D100920B460022012103E00092B2
:1033C0000B4600228021204600F018F8002804D087
:1033D000606D40F0200060650320F8BD38B50B46F5
:1033E000009204460022802100F008F8002804D052
:1033F000606D40F020006065032038BD2DE9F0418C
:103400001D4617460E460446DDF8188008E0681C85
:1034100006D0FEF7E1FAA0EB0800A8420BD255B1A6
:103420002068806836EA000030D00020B842EED133
:103430000020BDE8F0812068416821F0E001416092
:103440006068B0F5827F0BD1A068B0F5004F02D064
:10345000B0F5806F04D12068016821F0400101605F
:10346000A06AB0F5005F09D12068016821F400511D
:1034700001602068016841F400510160012084F876
:103480005100002084F850000320D2E70120CDE74E
:1034900010B50B460F49144600220A604FF0006237
:1034A00002EB8020C1E90203FEF788F921460948B2
:1034B000FEF7E6F830B1FEF737F907A000F0FEFF9F
:1034C000012010BDFEF730F908A000F0F7FF002042
:1034D00010BD000074100020B2C1B3FD41C7F84612
:1034E0006C617368CAA7B0DC0D0A0000B2C1B3FDFD
:1034F00041C7F8466C617368B3C9B9A60D0A0000EC
:1035000070B514460D460646FEF758F90DE0D5E9AC
:10351000002331460320FEF711F918B1FEF704F934
:10352000012070BD083C08350836002CEFD1FEF7AD
:10353000FBF8002070BD00000D48016841F001015A
:10354000016041680B4A1140416001680A4A11401C
:103550000160016821F480210160416821F4FE01CD
:1035600041604FF41F0181600449C0030860704747
:10357000001002400000FFF8FFFFF6FE08ED00E03B
:1035800030B4084B064C401E1C60D8600020491E19
:10359000C3E90110C3E9052030BC1846FFF721BA82
:1035A000002C0140881000200148FFF767BA000096
:1035B000881000200148FFF761BA00003411002094
:1035C000F0B50268164B174C174D4FF080479842E4
:1035D00005D0B84203D0A04201D0A84203D122F0C6
:1035E00070064A683243984205D0B84203D0A042E0
:1035F00001D0A84203D122F44074CA6822434C6926
:1036000022F08002224302608A68C2620A688262F3
:10361000984201D10969016301214161F0BD0000B7
:10362000002C014000040040000800400D4910B586
:10363000A1F1080000F150028165C0E9171200F500
:10364000F4720A60816D4A60002101806430044692
:10365000FFF7DBFA2046BDE810404FF40072024944
:10366000FFF7B0BB940400207406002038B5124C5C
:103670001049C4E919100020E06620676067E06720
:103680000C20A06704F164000546FFF704FB616E9F
:10369000086848680090C86840F01000C860FFF7EC
:1036A000C5FF04F5F4712846BDE838404FF40072B8
:1036B000FFF788BB003801408C04002070B5446AD5
:1036C0002068406994F83910C0F3C0100025212902
:1036D00004D118B1E584204600F046F8206840691E
:1036E00094F83A10C0F38010222904D118B1E5856E
:1036F000204600F02BF8E06B40F01000E06320461D
:10370000FFF7C8FA70BD10B50146406A096809683C
:10371000890613D40021C1850168CA6822F4807229
:10372000CA6001684A6922F001024A6101684A6977
:1037300022F040024A61202180F83A10FFF78EFB08
:1037400010BD10B5406AFFF78AFB10BD0168CA685A
:1037500022F49072CA6001684A6922F001024A614B
:10376000202180F83A1070470168CA6822F0C00230
:10377000CA60202180F83910704700002DE9F0411F
:10378000044600680169E26821F440511143016177
:103790002169A0680843616908432168CA6841F249
:1037A0000C639A430243CA6020684169A26921F40C
:1037B0004071114341611E492068642532268842C8
:1037C00002D1FEF733FB01E0FEF720FB00EBC00166
:1037D00001EB001160686FF018078000B1FBF0F298
:1037E000B2FBF5F2B1FBF0F37A4303EB8202B1FBDB
:1037F000F0F306EB0212B2FBF5F2B3FBF5F302F0C5
:10380000F00202EB0312B1FBF0F3B1FBF0F0B0FBFE
:10381000F5F0784303EB800006EB0010B0FBF5F009
:10382000216800F00F0010448860BDE8F0810000BE
:1038300000380140F8B5204C606E0168C943C906E4
:1038400031D4016800264068009004F16400074606
:10385000FFF7DBF9D4F8A41020884968174DC1F5AB
:103860000071084480B22080A16D28444860A06D9A
:103870000830A065216E884202D104F10800A065DD
:103880002088A16D28444FF4007208602088C0F59C
:103890000061914208DB41193846FFF793FA20880E
:1038A000A16D28440860F8BD268004493846FFF71A
:1038B00089FAA06D0560F8BD8C0400207406002014
:1038C00030B5164885B0816941F008018161806991
:1038D0004FF4805400F0080004900120CDE900402E
:1038E00002200F4D039069462846FDF77BFF012219
:1038F00021462846FEF76BF83220FDF795FCFFF7CE
:1039000009FD00F045F8A0F56F41163902D00120FD
:1039100005B030BD00F092F80020F9E70010024039
:10392000000C0140F8B5054603208DF80000080C96
:103930008DF80100080A8DF8020014468DF8031076
:1039400000F05CF8104F4FF48056002231463846A4
:10395000FEF73DF83220FDF767FC4FF47A7304223E
:1039600069460A48FEF721FEA2B244F620632946C2
:103970000648FEF719FD012231463846FEF727F8C2
:103980003220FDF751FCF8BD000C0140C8100020AA
:1039900030B516A185B0D1E90001CDE9010100F0F3
:1039A0002DF8144D4FF48054002221462846FEF78E
:1039B0000EF83220FDF738FC4FF47A7000900623A1
:1039C00003AA01A90C48FEF7B4FE012221462846AD
:1039D000FDF7FDFF3220FDF727FC9DF811009DF853
:1039E000101005B000EB012080B230BD9000000047
:1039F00000000000000C0140C810002070B50E4D02
:103A00004FF48056002231462846FDF7E0FF322071
:103A1000FDF70AFC0520FFF7A3FCFF20FFF7A0FC41
:103A20000446012231462846FDF7D1FF3220FDF73A
:103A3000FBFBE007E6D170BD000C014070B5FFF75D
:103A4000DDFF0C4D4FF48054002221462846FDF73F
:103A5000BEFF3220FDF7E8FB0620FFF781FC0122C4
:103A600021462846FDF7B3FFBDE870403220FDF740
:103A7000DBBB0000000C014037B514460846064B7E
:103A80006A46214600F010F904466946002000F01D
:103A9000A2FC20463EBD0000D74300080907090EDE
:103AA000002804DB00F1E02080F80014704700F0EB
:103AB0000F0000F1E02080F8141D7047BFF34F8F16
:103AC00005480168054A01F4E06111430160BFF354
:103AD0004F8F00BFFDE700000CED00E00400FA0589
:103AE000BFF34F8F05480168054A01F4E0611143B7
:103AF0000160BFF34F8F00BFFDE700000CED00E059
:103B00000400FA0502E008C8121F08C1002AFAD111
:103B100070477047002001E001C1121F002AFBD14D
:103B2000704700002DE9FF5F82B00021DDE904301D
:103B3000020DDDF840B0034318D044F61050A2F255
:103B4000FF3242431514119801281FD0A5EB0B003A
:103B5000401C5FEA000A4FF000064E4FDFF8389134
:103B6000B046504615D5CAF1000413E0119801245F
:103B70004AA3012801D16FEA0B010298119AC0E90A
:103B80000031C0E9024206B0BDE8F09FCBF1000071
:103B9000DFE704460021404A491842EB0450CDE9D2
:103BA000001012E0E00707D032463B464046494647
:103BB000FCF7A7FC8046894632463B46104619462C
:103BC000FCF79FFC06460F466410002CEAD1DDE9A5
:103BD0000401DDE90023BAF1000F06DAFCF791FCDD
:103BE00042464B46FCF78DFC05E0FCF7FCFC4246E8
:103BF0004B46FCF7F8FC04460E460022284BFCF727
:103C000079FD03D84FF0FF30014607E00022254B35
:103C100020463146FCF7CEFBFCF754FD102409E0AA
:103C2000002C0ADB0A220023FCF75EFB039B3032E8
:103C30001A55641E50EA0102F2D1641C039AC4F1C1
:103C400011031444119A012A03D0012208430DD113
:103C50000AE0084304D000204FF0110B119072E7E6
:103C6000A3EB0B056D1E0DE05B4504DD4FF000027C
:103C700005F1010504E003DA4FF00002A5F10105AA
:103C8000002AECD002981199C0E90231C0E9004540
:103C900079E70000000014400000F03F3000000011
:103CA0000000F0430000E03F2DE9FF4F95B09B4638
:103CB0008946064600250FE2252877D100242746AD
:103CC000F84A0121059400E0044316F8013F203B27
:103CD00001FA03F01042F7D130782A2811D06FF0A2
:103CE0002F033078A0F13002092A16D8059A44F043
:103CF000020402EB820203EB42021044761C0590A0
:103D0000EFE759F8042B0592002A03DA504244F4F5
:103D10000054059044F00204761C30782E2816D109
:103D200016F8010F44F004042A280DD06FF02F027A
:103D30003078A0F13003092B09D807EB870302EB99
:103D40004303C718761CF3E759F8047B761C3078D8
:103D50006C280FD006DC4C2817D068280DD06A28B4
:103D600014D104E0742810D07A280FD10DE044F467
:103D700000140AE044F4801401E044F44014727822
:103D8000824202D104F58014761C761C30786628B5
:103D90000BD013DC582877D009DC002875D04528D3
:103DA000F6D04628F4D047281AD19DE118E06328C0
:103DB00035D0642879D0652812D195E1702873D068
:103DC00008DC6728F1D069286FD06E280DD06F28E5
:103DD00006D1B5E073282CD0752875D0782874D01A
:103DE0005A46179990476D1C75E1C4F3025002289A
:103DF00009D003280DD0D9F8001004280DD00D608B
:103E000009F1040967E1D9F80010EA17C1E9005285
:103E1000F6E7D9F800100D80F2E70D70F0E719F819
:103E2000041B8DF8001000208DF80100EA460120E7
:103E300003E059F804AB4FF0FF3061074FF0000189
:103E400002D40DE008F101018846B9420FDA80453D
:103E5000F8DB1AF808100029F4D108E008F1010194
:103E600088468142FADB1AF808100029F6D1059835
:103E70005B46A0EB080721463846179A00F094FAF3
:103E8000284400EB080507E04DE029E10DE01AF8B1
:103E9000010B5A4617999047B8F10108F7D25B46D3
:103EA00021463846179A13E142E00A220092C4F3F1
:103EB00002524FF0000A022A08D059F804CB032A14
:103EC0004FEAEC710AD00DE029E02AE009F1070180
:103ED00021F00702F2E802C1914609E00FFA8CFCDA
:103EE0004FEAEC71042A03D14FFA8CFC4FEAEC71D3
:103EF000002907DA0A460021DCF1000C61EB02011F
:103F00002D2202E0220504D52B228DF80420012267
:103F100003E0E20701D02022F7E7904659E00A21AA
:103F200002E010220DE010214FF0000A00910BE09A
:103F300010224FF0000A44F004040827009203E026
:103F400008224FF0000A0092C4F30252022A05D060
:103F500059F804CB0021032A08D009E009F1070130
:103F600021F00702F2E802C1914605E01FFA8CFC3D
:103F7000042A01D10CF0FF0C4FF00008220728D5CD
:103F8000702806D0009B83F0100353EA0A0305D083
:103F90000EE040228DF80420012208E05CEA0102D4
:103FA00006D030228DF804208DF8050002229046BC
:103FB000009B83F0080353EA0A030AD15CEA01027A
:103FC00001D1620705D530228DF804204FF0010899
:103FD0007F1E582804D034A003900EA802900DE054
:103FE00036A0F9E753466046009AFCF77DF984460F
:103FF0000398825C0298401E029002705CEA010005
:10400000F0D1029806A9081A00F1200A600702D52B
:1040100024F4803400E00127574502DDA7EB0A00B5
:1040200000E0002000EB0A01009005984144401A8E
:104030000590E00306D45B462146179A059800F0E8
:10404000B3F90544002706E001A85A46C05D179958
:1040500090476D1C7F1C4745F6DBE0030CD55B46A3
:104060002146179A059800F09FF9054404E0302096
:104070005A46179990476D1C0099481E00900029D8
:10408000F5DC08E0029802995A460078491C029132
:10409000179990476D1CBAF10001AAF1010AF1DCF1
:1040A00065E10000092801003031323334353637FC
:1040B0003839616263646566000000003031323374
:1040C0003435363738394142434445460000000014
:1040D00000F058F90544761C307800287FF4ECADE8
:1040E00019B02846BDE8F08F620700D4062709F111
:1040F000070222F0070CFCE80223E14603F0004827
:104100005FEA080C02D00FF2702C0DE05FEA045C4D
:1041100002D50FF2682C07E05FEAC47C02D00FF2F0
:10412000602C01E0AFF2700C4FF0FF3823F0004339
:10413000CDF850C065280CD006DC452809D04628AB
:104140001DD047283DD13DE0662818D067287ED194
:1041500038E00021112F01DB112000E0781CCDE9AF
:10416000000106A90EA8FFF7DDFCDDE90F010E9A9C
:1041700003910021009207F1010A04914DE04FF0F4
:1041800000400097CDE9011006A90EA8FFF7CAFC70
:10419000DDE90F0203920E9B11990022DDF80CA0BD
:1041A0000093049211B9791C00EB010AB7EB0A00E5
:1041B00004D4C0F1FF3007F1010A0490AAEB070014
:1041C000019044E0012F00DA01270021112F01DDC9
:1041D000112000E03846CDE9000106A90EA8FFF73E
:1041E000A1FCDDE90F010E9A0391002104910092D8
:1041F000BA4621070CD40399514500DA8A46BAF130
:10420000010F05DD009AAAF10101515C302908D0A7
:10421000B84202DA10F1040F06DA0121CDE90110EB
:1042200015E0AAF10101E9E7002805DC0499014441
:104230000491AAEB000102E0411C514500DD8A46D1
:104240000499401A401C01904FF000400290200752
:1042500004D40198504501DBCDF8048000208DF88E
:104260004F0002980DF14F07B0F1004F25D02B20E1
:104270000E9002984FF0020800280CDA404202909B
:104280002D200E9007E00A210298FCF717F8303134
:10429000029007F8011DB8F10001A8F10108F2DC55
:1042A00002980028EFD1791E0E980870307800F03F
:1042B000200040F0450007F8020D12A8C01B00F1D5
:1042C00007081498007800B1012000EB0A0101985A
:1042D00001EBE07105984144401A401E0590E0034F
:1042E00006D45B462146179A059800F05DF8054410
:1042F0001498007818B15A46179990476D1CE0033E
:1043000024D55B462146179A059800F04DF80544E0
:104310001CE00498002807DBDDE90301884203DD87
:104320000098405C179901E0179930205A46904751
:10433000049805F10105401C04900198401E01906D
:1043400004D12E205A46179990476D1CBAF10001EE
:10435000AAF1010ADDDC05E017F8010B5A461799AE
:1043600090476D1CB8F10001A8F10108F4DC5B4630
:104370002146179A0598ABE62D0000002B0000009F
:10438000200000002DE9F041044600251E46174696
:10439000880404D405E039462020B0476D1C641E13
:1043A000F9D52846BDE8F0812DE9F0410446002505
:1043B0001E469046C80301D5302700E02027880418
:1043C00004D505E041463846B0476D1C641EF9D55A
:1043D0002846BDE8F0810A68531C0B6010707047D6
:1043E000FDF708FBFEF75FFF4FF41650FFF73EF9AD
:1043F000FEF738FDFFF764FAFCF734FF1B4C6068EA
:10440000C043800707D41AA000F058F8206840F095
:104410000800206002E01CA000F050F8FCF77AFCD5
:1044200000224FF4E15147F23050FFF7A9F8194C40
:10443000D4E91610884215D081880288891A8AB278
:10444000628001681448FBF781FE61881248FCF71E
:1044500017FDE06D0830E065216E884202D10D48FD
:104460000830E065FCF79EFBE2E7000000700040CA
:10447000CFB5CDB3B4D3B4FDBBFAC4A3CABDBBBDE5
:10448000D0D10D0A00000000D5FDB3A3BFAABBFA2E
:104490000D0A00008C040020740E002006494A6EAC
:1044A0001368DB435B06FBD45060486E0168C94368
:1044B0004906FBD4704700008C0400200FB411485B
:1044C00010B503AA0299FFF7D7FA0E48FBF762FE70
:1044D0000C49E8398880486E0268D2435206FBD402
:1044E0000020084B08E04C6E1A5C62604A6E14684B
:1044F000E4436406FBD4401C8A888242F3D810BC93
:104500005DF814FB740500200000000000000000AE
:104510000102030406070809000000000102030469
:10452000DDDDDDDDDCBBBBDDDDDDDDDDDDDDDDDD00
:104530009888888888888888777777777788888840
:1045400085555556666666666666666666688888D8
:104550008333333222222222222222222228888DD1
:104560002D2D2D2D2D2D2D2D2D2D2D2D2D2D2D2D7B
:104570002D2D2D2D2D2D2D2D2D2D2D2D2D2D2D2D6B
:104580002D2D2D2D2D2D2D2D2D2D2D2D2D2D2D2D5B
:104590002D2D2D2D2D2D2D2D2D2D2D2D2D2D2D2D4B
:1045A0002D2D2D2D2D0D0A0D0A0000002D2D2D2D48
:1045B0002D2D2D2D2D2D2D2D2D2D2D2D2D2D2D2D2B
:1045C0002D2D2D2D2D2DB0A2C0EFD4C6C9E8B1B828
:1045D000D6A4CAE9D0C5CFA22D2D2D2D2D2D2D2D40
:1045E0002D2D2D2D2D2D2D2D2D2D2D2D2D2D2D2DFB
:1045F0002D0D0A00144600080000002018000000DD
:10460000043B00082C46000818000020801500001C
:10461000143B000800000000000000000100000042
:0C46200010000000000000000024F40066
:04000005080000ED02
:00000001FF
